:100000000C94B5000C94DD000C94DD000C94FC23E2
:100010000C9420240C9444240C94DD000C94DD00FA
:100020000C94DD000C94DD000C94DD000C94DD00DC
:100030000C94DD000C94DD000C94DD000C94DD00CC
:100040000C94BB2C0C94DD000C944C280C9493283D
:100050000C94DD000C94DD000C94DD000C94DD00AC
:100060000C94DD000C94DD007C3C3E5E2B3D3F2F6C
:100070005B5D3B2C2A225C0000C2010001001100E4
:1000800011000C0000E100000A00250025002100FD
:10009000009600001900390039003600127A00007D
:1000A0001F004600460044008070000022004D0002
:1000B0004D004A00004B00003600750075007200CC
:1000C000403800004A009C009C00990080250000F8
:1000D0007200EC00EC00E900C0120000E900DA0157
:1000E000DA01D70160090000D701B603B603B303F4
:1000F000B0040000B3036E076E076B072C0100000D
:10010000DC0EC11DC11DBE1D000000002400270023
:100110002A0000000000250028002B00000000003D
:100120002300260029000404040404040404020239
:100130000202020203030303030301020408102066
:100140004080010204081020010204081020000071
:100150000007000201000003040600000000000088
:100160000000DD122E280A2AD61211241FBECFEF5E
:10017000D8E0DEBFCDBF11E0A0E0B1E0E2E0F3E601
:1001800002C005900D92A83DB107D9F717E0A8ED80
:10019000B1E001C01D92A535B107E1F711E0C8E655
:1001A000D1E004C02297FE010E940D2FC236D10774
:1001B000C9F70E94A92C0C9474310C940000CF93C1
:1001C000DF93FB01EC0188A599A5AAA5BBA58083B7
:1001D0009183A283B3838CA59DA5AEA5BFA5FA018B
:1001E00080839183A283B383DF91CF910895CF93CE
:1001F000DF93FB01EC0188A199A1AAA1BBA1808397
:100200009183A283B3838CA19DA1AEA1BFA1FA016A
:1002100080839183A283B383DF91CF910895FC0102
:10022000868D978D0895EF92FF920F931F93CF9332
:10023000DF93EC0181E6E82EF12CEC0EFD1ECE01E1
:100240008D519E4FB7010E94910C88831F8A1E8A90
:1002500009C0FE01E80FF91FE859FF4F108201960F
:100260009F8B8E8B8E899F898430910594F3888132
:10027000813011F080E025C0C70161E070E00E948C
:10028000D42B8E0108591F4FF8018083C70162E00B
:1002900070E00E94D42BC759DF4F8993C70163E0F8
:1002A00070E00E94D42B89931882CB56D040C701AE
:1002B000B8010E948A2CC7010E94F62B7F8F6E8F97
:1002C00081E0DF91CF911F910F91FF90EF90089502
:1002D000EF92FF920F931F93CF93DF93EC0190E384
:1002E000E92EF12CEC0EFD1EC70160E071E00E94CA
:1002F0008A2CCE018D519E4FB7010E94090C8D832F
:10030000882341F489E297E061E071E00E947A2B52
:1003100080E06DC0813009F069C089E297E0B701E3
:100320000E94C02B1F8A1E8A09C0FE01E80FF91F18
:10033000E459FF4F108201969F8B8E8B8E899F8987
:100340008730910594F31F8A1E8A0FC0C701B80138
:100350000E94D42B0C0F1D1F04591F4FF8018083DE
:100360008E899F8901969F8B8E8B0E891F890630FF
:10037000110564F3CE58DF4F188226978881CC563A
:10038000D040843261F5C359DF4F8881CD56D040CB
:10039000873429F5C259DF4F8881CE56D040803549
:1003A000F1F4C159DF4F8881CF56D0408235B9F47E
:1003B000C059DF4F8881C057D0408D3481F4CF5869
:1003C000DF4F8881C157D040833449F489E297E0F8
:1003D00064E071E00E947A2B81E0888307C089E2A3
:1003E00097E069E071E00E947A2B18828881DF91A2
:1003F000CF911F910F91FF90EF9008959F92AF9230
:10040000BF92CF92DF92EF92FF920F931F93CF9301
:10041000DF93EC011F8219861D8E1C8E1B8A1A8A9F
:10042000198E188E1B8E1A8E1F8A1E8A09C0FE0115
:10043000E80FF91FE156FF4F108201969F8B8E8BBC
:100440008E899F898B32910594F3CE010E946801B9
:100450008E83882309F4F6C08130D1F58E01005DCA
:100460001F4FFF24F39431C08A899B896C8D7D8D49
:100470000297E1F4C8010E94D42B863541F489E249
:1004800097E06EE071E00E947A2B80E0DBC06C8D1B
:100490007D8DC8010E94D42B813491F489E297E0CC
:1004A00061E171E00E947A2BFF820AC0C8010E94BC
:1004B000D42B8C3229F48A899B8901969B8B8A8B59
:1004C0008C8D9D8D01969D8F8C8F8F81813061F6F3
:1004D0008F81813009F0B5C01B8A1A8A1F8A1E8A53
:1004E00040E3E42EF12CEC0EFD1E39ECC32ED12C92
:1004F000CC0EDD1E9924939427E0A22EB12C9DC032
:100500008A899B898130910501F56E897F89C701B0
:100510000E94D42B6E897F89088D198D8C3209F049
:1005200059C0C7010E94D42B0C0F1D1F01561F4F2D
:10053000F8018083888D998D0196998F888F8E8997
:100540009F8901969F8B8E8B3DC08330910551F51D
:100550006E897F89C7010E94D42B8C3229F48A8D41
:100560009B8D01969B8F8A8F8A8D9B8D6E897F894B
:10057000088D198D049771F5C7010E94D42B0C0FBB
:100580001D1F01561F4FF8018083888D998D01969C
:10059000998F888F8E899F8901969F8B8E8BBB8ABE
:1005A000AA8A4BC08930910549F56E897F89C701B8
:1005B0000E94D42B6E897F898C3251F46F5F7F4FFC
:1005C0007F8B6E8B8A899B8901969B8B8A8B35C02A
:1005D000088D198DC7010E94D42B0C0F1D1F0156C9
:1005E0001F4FF8018083888D998D0196998F888F90
:1005F0008E899F8901969F8B8E8B1FC00A9759F415
:10060000F601108289E297E064E171E00E947A2BA2
:100610009986988212C06E897F89C7010E94D42B67
:100620006E897F898C3229F48A899B8901969B8BFC
:100630008A8B6F5F7F4F7F8B6E8B8985813009F04E
:100640005FCF8881DF91CF911F910F91FF90EF9045
:10065000DF90CF90BF90AF909F900895CF92DF92A0
:10066000EF92FF920F931F93DF93CF93CDB7DEB737
:10067000AA970FB6F894DEBF0FBECDBF8C010E94C3
:10068000FE01D80118968C93882329F489E297E01B
:100690006AE171E04BC0813009F060C0FE01319623
:1006A0008AE2DF011D928A95E9F7D80157961C92DC
:1006B0001E925697AF010FC0FA01E20FF31FD80147
:1006C000A20FB31FA156BF4F8C9180832F5F3F4F66
:1006D000F801378B268BD80156962D913C91579770
:1006E0002A3231054CF357961C921E9256975CECB9
:1006F000E52EF12CE00EF11E6E010894C11CD11CF8
:1007000019C0EC0DFD1DC70160810E94940BF8011A
:100710008283813039F48483868997890196978B07
:10072000868B08C089E297E06FE171E00E947A2B26
:1007300080E016C0D8015696ED91FC915797EA32A9
:10074000F105FCF2C7010E94500BF8018283813051
:1007500011F4848303C0D80114961C92F80184819B
:10076000AA960FB6F894DEBF0FBECDBFCF91DF9132
:100770001F910F91FF90EF90DF90CF9008959F927F
:10078000AF92BF92CF92DF92EF92FF920F931F939F
:10079000CF93DF93EC011F8219861B8A1A8A1D8E64
:1007A0001C8E198E188E1B8E1A8E1F8A1E8A09C0E7
:1007B000FE01E80FF91FEA57FF4F108201969F8B49
:1007C0008E8B8E899F898931910594F3CE010E9489
:1007D00068018E83882309F4A7C08130D1F58E018A
:1007E000005D1F4FFF24F39431C08A899B896C8D73
:1007F0007D8D0297E1F4C8010E94D42B863541F427
:1008000089E297E06EE071E00E947A2B80E08CC074
:100810006C8D7D8DC8010E94D42B813491F489E2C6
:1008200097E061E171E00E947A2BFF820AC0C80163
:100830000E94D42B8C3229F48A899B8901969B8B48
:100840008A8B8C8D9D8D01969D8F8C8F8F818130B1
:1008500061F68F81813009F066C01B8A1A8A1F8A6F
:100860001E8AE0E3EE2EF12CEC0EFD1E7EE9C72E73
:10087000D12CCC0EDD1E9924939467E0A62EB12CCA
:100880004EC08A899B898330910551F5088D198D59
:100890006E897F89C7010E94D42B0C0F1D1F0A5738
:1008A0001F4FF80180838A8D9B8D039711F4BB8ABB
:1008B000AA8A6E897F89C7010E94D42B8C3229F4C1
:1008C0008A8D9B8D01969B8F8A8F888D998D01963D
:1008D000998F888F8E899F8901969F8B8E8B1FC0E1
:1008E000079759F4F601108289E297E062E271E01D
:1008F0000E947A2B9986988212C06E897F89C701DF
:100900000E94D42B2E893F898C3229F48A899B89B5
:1009100001969B8B8A8B2F5F3F4F3F8B2E8B898558
:10092000813009F0AECF8881DF91CF911F910F9177
:10093000FF90EF90DF90CF90BF90AF909F90089581
:10094000EF92FF920F931F93CF93DF93EC018C01F3
:100950000D5A1F4FC80160E071E00E948A2CFAE531
:10096000EF2EF12CEC0EFD1EC70160E071E00E943D
:100970008A2C1C861D861F8A1E8A09C0FE01E80F6C
:10098000F91FED58FF4F108201969F8B8E8B8E8939
:100990009F898930910594F31F8A1E8A09C0FE0140
:1009A000E80FF91FE458FF4F108201969F8B8E8B42
:1009B0008E899F898A30910594F3CE010E94BF03EE
:1009C0008883813011F080E0C0C0DE01AD58BF4F98
:1009D000CA57DF4F8881C658D0408C93FE01EC582F
:1009E000FF4FC957DF4F8881C758D0408083FE0131
:1009F000EB58FF4FC857DF4F8881C858D0408083DD
:100A0000FE01EA58FF4FC757DF4F8881C958D040D1
:100A10008083FE01E958FF4FC557DF4F8881CB58CF
:100A2000D0408083FE01E858FF4FC457DF4F8881D4
:100A3000CC58D0408083FE01E758FF4FC357DF4FAB
:100A40008881CD58D0408083FE01E658FF4FC257C1
:100A5000DF4F8881808363971882CB57D040C801CD
:100A6000BD010E948A2CC8010E94F62B68A779A7B5
:100A70008AA79BA7DE01A458BF4FCE56DF4F8881BF
:100A8000C259D0408C93FE01E358FF4FCD56DF4F43
:100A90008881C359D0408083FE01E258FF4FCC5675
:100AA000DF4F8881C459D0408083FE01E158FF4F59
:100AB000CB56DF4F8881C559D0408083FE01E05876
:100AC000FF4FCA56DF4F8881C659D0408083FE0150
:100AD000EF57FF4FC856DF4F8881C859D0408083F9
:100AE000FE01EE57FF4FC756DF4F8881C959D040EE
:100AF0008083FE01ED57FF4FC656DF4F8881CA59EC
:100B0000D0408083FE01EC57FF4FC556DF4F8881F0
:100B1000808366971882C558D040C701BD010E94E6
:100B20008A2CC7010E94F62B6CA77DA78EA79FA7D2
:100B3000C057DF4F8881C059D0408C87C356DF4FE4
:100B40008881CD59D0408D8781E0DF91CF911F9171
:100B50000F91FF90EF900895EF92FF920F931F93E4
:100B6000CF93DF93EC018C010B5B1F4FC80160E05A
:100B700071E00E948A2CACE4EA2EF12CEC0EFD1EF2
:100B8000C70160E071E00E948A2C1A861B861F8ACA
:100B90001E8A09C0FE01E80FF91FED58FF4F1082B1
:100BA00001969F8B8E8B8E899F898930910594F356
:100BB0001F8A1E8A09C0FE01E80FF91FE458FF4F83
:100BC000108201969F8B8E8B8E899F898A3091052A
:100BD00094F3CE010E94BF038883813011F080E03E
:100BE000C0C0DE01AD58BF4FCA57DF4F8881C6581D
:100BF000D0408C93FE01EC58FF4FC957DF4F8881DE
:100C0000C758D0408083FE01EB58FF4FC857DF4FD5
:100C10008881C858D0408083FE01EA58FF4FC757EB
:100C2000DF4F8881C958D0408083FE01E958FF4FCB
:100C3000C557DF4F8881CB58D0408083FE01E858EC
:100C4000FF4FC457DF4F8881CC58D0408083FE01CE
:100C5000E758FF4FC357DF4F8881CD58D04080837E
:100C6000FE01E658FF4FC257DF4F888180836397AC
:100C70001882CB57D040C801BD010E948A2CC80100
:100C80000E94F62B68A379A38AA39BA3DE01A45834
:100C9000BF4FCE56DF4F8881C259D0408C93FE01A2
:100CA000E358FF4FCD56DF4F8881C359D040808332
:100CB000FE01E258FF4FCC56DF4F8881C459D04027
:100CC0008083FE01E158FF4FCB56DF4F8881C55925
:100CD000D0408083FE01E058FF4FCA56DF4F888125
:100CE000C659D0408083FE01EF57FF4FC856DF4FF3
:100CF0008881C859D0408083FE01EE57FF4FC75608
:100D0000DF4F8881C959D0408083FE01ED57FF4FE6
:100D1000C656DF4F8881CA59D0408083FE01EC5708
:100D2000FF4FC556DF4F8881808366971882C5586C
:100D3000D040C701BD010E948A2CC7010E94F62B3A
:100D40006CA37DA38EA39FA3C057DF4F8881C0599A
:100D5000D0408A87C356DF4F8881CD59D0408B87DA
:100D600081E0DF91CF911F910F91FF90EF90089557
:100D7000EF92FF920F931F93DF93CF93CDB7DEB720
:100D800069970FB6F894DEBF0FBECDBF8C017E0110
:100D90000894E11CF11C89E1F70111928A95E9F7A9
:100DA0008AEA8983F801118E108EC8010E94BF0360
:100DB000F8018087882341F489E297E06AE171E0D5
:100DC0000E947A2B80E044C0813009F03FC081E06E
:100DD00090E0F801918F808FB8016A577F4F89E2C8
:100DE00097E00E947A2BF801178A168AB70117C07C
:100DF000F801208D318D260F371FA00FB11FAA5784
:100E0000BF4F8C91F9018083F801808D918D0196FF
:100E1000918F808F868997890196978B868BF801B1
:100E2000A689B789A831B1051CF3C801875D9E4F1B
:100E300049E150E00E949D11F8018183882311F45B
:100E4000108204C0813011F4F8018083F8018081A0
:100E500069960FB6F894DEBF0FBECDBFCF91DF917C
:100E60001F910F91FF90EF9008956F927F928F9254
:100E70009F92AF92BF92CF92DF92EF92FF920F9329
:100E80001F93DF93CF93CDB7DEB761970FB6F8947A
:100E9000DEBF0FBECDBF7C01FE0133968FE0DF01C8
:100EA0001D928A95E9F719821A82F701138A128A2C
:100EB00017861686118A108A27E3C22ED12CCE0CF3
:100EC000DF1CC60160E071E00E948A2C9EE3892E3F
:100ED000912C8E0C9F1CC40160E071E00E948A2C52
:100EE00083EEA82E81E0B82EAE0CBF1CB701625F66
:100EF0007F4FC5010E94CC0D8FEF8B83D7011E96CB
:100F00009C911E971F968C918C839D83B701605F87
:100F10007F4FC5010E94C00D8EEF8E83F70190892F
:100F200081898F8398878DEF8987C501B6010E94DB
:100F3000300D87E090E0D70155969C938E9354979F
:100F400057961C921E92569700E010E03E010894BE
:100F5000611C711C24C0F70182899389029751F4A6
:100F6000C6010E94D42BF301E00FF11F80830F5FB5
:100F70001F4F0FC0C6010E94D42B8C3251F4D701F1
:100F800052968D919C915397019653969C938E9374
:100F90005297F701868997890196978B868BD7019F
:100FA00056966D917C915797DB968D919C91DC972D
:100FB00001978617970778F6DE011396F701848963
:100FC000958929810130110561F4FD01E80FF91FB0
:100FD00010820196F701958B848BA80FB91F2C9373
:100FE0000CC0FD01E80FF91F20830196F701958BD6
:100FF000848BA80FB91F8A818C93C501B4010E940C
:10100000910CD7018C93813009F08DC0C40160E050
:1010100070E00E94D42B823009F08BC0C40164E0E0
:1010200070E00E94D42B833009F083C08CEF8C8752
:1010300089E297E067E271E00E947A2B8AE090E013
:10104000F701958B848B178A168A02E4C02ED12C67
:10105000CE0CDF1C13E0A12EB12CAC0EBD1E1FC0A8
:10106000D70154960D911C915597C4010E94D42B21
:101070000A0D1B1DF8018083D70154968D919C9118
:101080005597019655969C938E93549756968D91AD
:101090009C915797019657969C938E935697F7017C
:1010A00066897789D6018D919C910197861797075C
:1010B000B8F6178A168A870104531F4FB3E0CB2E68
:1010C000D12CCC0EDD1E1AC0EC0DFD1D6081C801B7
:1010D00070E00E94BD0BF7018283813039F4848374
:1010E000868997890196978B868B08C089E297E05D
:1010F0006FE171E00E947A2B80E020C0D701569604
:10110000ED91FC915797EF30F105F4F2C8010E9480
:10111000500BF7018283813011F484830CC0D70116
:1011200014961C9208C089E297E06BE271E00E947D
:101130007A2BF7011482D70114968C9161960FB621
:10114000F894DEBF0FBECDBFCF91DF911F910F91FD
:10115000FF90EF90DF90CF90BF90AF909F908F90D7
:101160007F906F9008956F927F928F929F92AF922F
:10117000BF92CF92DF92EF92FF920F931F93DF9374
:10118000CF93CDB7DEB761970FB6F894DEBF0FBE31
:10119000CDBF7C01FE0133968FE0DF011D928A9561
:1011A000E9F719821A82F701138A128A17861686BE
:1011B000118A108A77E3C72ED12CCE0CDF1CC60112
:1011C00060E071E00E948A2C6EE3862E912C8E0CDA
:1011D0009F1CC40160E071E00E948A2C53EEA52E92
:1011E00051E0B52EAE0CBF1CB701625F7F4FC50149
:1011F0000E94CC0D8FEF8B83D7011F968C911F9788
:101200008C831E968C918D83B701605F7F4FC501E3
:101210000E94C00D8EEF8E83F701908981898F83A4
:1012200098878DEF8987C501B6010E94300D87E050
:1012300090E0D70155969C938E93549757961C92A5
:101240001E92569700E010E03E010894611C711C4C
:1012500024C0F70182899389029751F4C6010E9444
:10126000D42BF301E00FF11F80830F5F1F4F0FC0DE
:10127000C6010E94D42B8C3251F4D70152968D9125
:101280009C915397019653969C938E935297F70196
:10129000868997890196978B868BD70156966D9193
:1012A0007C915797DB968D919C91DC9701978617DF
:1012B000970778F6DE011396F701848995892981CD
:1012C0000130110561F4FD01E80FF91F108201964C
:1012D000F701958B848BA80FB91F2C930CC0FD01CF
:1012E000E80FF91F20830196F701958B848BA80FD7
:1012F000B91F8A818C938CEF8C87C501B4010E9441
:10130000910CD7018C93813009F071C0C40160E069
:1013100070E00E94D42B823009F06FC0C40164E0F9
:1013200070E00E94D42B833009F067C089E297E017
:1013300067E271E00E947A2B8AE090E0F701958BDA
:10134000848B178A168A42E4C42ED12CCE0CDF1C63
:1013500033E0A32EB12CAC0EBD1E1FC0D701549696
:101360000D911C915597C4010E94D42B0A0D1B1D91
:10137000F8018083D70154968D919C9155970196E1
:1013800055969C938E93549756968D919C91579712
:10139000019657969C938E935697F70166897789A5
:1013A000D6018D919C91019786179707B8F6C701D2
:1013B000875D9E4FB5014FE050E00E94CD11082F90
:1013C000F7018183813051F489E297E06EE271E0A8
:1013D0000E947A2BD70113960C9312C089E297E0F2
:1013E00062E371E00E947A2BF701138209C089E25F
:1013F00097E06BE271E00E947A2BD70113961C9262
:10140000F701838161960FB6F894DEBF0FBECDBFA2
:10141000CF91DF911F910F91FF90EF90DF90CF90D0
:10142000BF90AF909F908F907F906F9008956115BF
:10143000710529F486539F4F0E94F20A0895633084
:10144000710529F486539F4F0E94EC0A0895643079
:10145000710529F486539F4F0E94150B0895613042
:10146000710529F486539F4F0E94280B089562301E
:10147000710529F486539F4F0E94230B0895653010
:10148000710521F486539F4F0E94F80A08950F9327
:101490001F938C0186539F4F0E942D0BC801875DBF
:1014A0009E4F0E94FE110D511E4FC8010E94D80D83
:1014B000C8010E94F00B1F910F9108950F931F9385
:1014C0008C018D519E4F0E94270EC801875D9E4F53
:1014D0000E949C11C80184539F4F0E94770BC80142
:1014E00086539F4F0E94EB0AC8018F599F4F0E945D
:1014F000A32CC801865A9F4F0E94A32CC8018D5A65
:101500009F4F0E94A32CC801845B9F4F0E94A32C75
:10151000C8018B5B9F4F0E94A32CC801CE960E94EE
:10152000A32CC801C7960E94A32CC801C0960E9494
:10153000A32C1F910F910895EF92FF920F931F9389
:101540008C01E0E0EE2EE1E0FE2EC096B7010E9495
:10155000702CC801C796B7010E94702CC801CE96A6
:10156000B7010E94702CC8018B5B9F4FB7010E948E
:10157000702CC801845B9F4FB7010E94702CC8017A
:101580008D5A9F4FB7010E94702CC801865A9F4FF9
:10159000B7010E94702CC8018F599F4FB7010E945C
:1015A000702CC80186539F4F0E94EA0AC8018453D9
:1015B0009F4F0E943A0BC801875D9E4F0E949F1269
:1015C000C8018D519E4F0E942B0E1F910F91FF90CD
:1015D000EF9008950895089589E066EE70E00E9406
:1015E000BD2D089589E06FEF70E00E94BD2D089534
:1015F000CF93DF93EC01198218820EC089E00E941C
:10160000BD2D62E370E080E090E00E94372D88817C
:101610009981019699838883688179816F3F7105EB
:1016200069F364F3DF91CF91089580E160E00E9457
:10163000702E81E160E00E94702E89E060E070E031
:101640000E94BD2D089581E161E00E94702E0895F1
:1016500080E161E00E94702E089589E061E00E94BF
:101660001D2E80E161E00E941D2E81E161E00E945B
:101670001D2E0895FC0189E181831482148E13A22A
:1016800016A2EE5BFF4F10823396108235971182BF
:101690001082E054F04088E991E097AF86AF08955A
:1016A0000F931F93CF93DF93EC0162E044E00E941D
:1016B000781E8823B1F08E010E5B1F4FC80165E3D1
:1016C00071E043E60E94511E882359F0CE01CE9668
:1016D00061E471E00E947A2BC8010E943A1781E010
:1016E00001C080E0DF91CF911F910F910895CF93BA
:1016F000DF93EC0188E991E09FAF8EAFCB5BDF4FCA
:101700008881C554D040882329F0CE018E5B9F4F3D
:101710000E943A178EA1882321F0CE0183960E9461
:101720003A17DF91CF910895FF920F931F93CF93B4
:10173000DF93EC01F62E62E044E00E94781E8823DD
:10174000A9F08E010E5B1F4FC80165E371E043E60F
:101750000E94511E882351F0CE01CE966F2D0E941B
:10176000842AC8010E943A1781E001C080E0DF911D
:10177000CF911F910F91FF900895EF92FF920F93D9
:101780001F93CF93DF938C017B0162E044E00E94C2
:10179000781E8823E9F0E801CE5BDF4FCE0165E3D8
:1017A00071E043E60E94511E882391F0025C1F4FB6
:1017B000C801B7014AE050E00E94642BC80162E40E
:1017C00071E00E94772BCE010E943A1781E001C0A0
:1017D00080E0DF91CF911F910F91FF90EF900895DE
:1017E0000F931F938C0168EE73E080E090E00E94FD
:1017F000372DF80185A596A564E471E00E94772B4A
:1018000068EE73E080E090E00E94372D1F910F9109
:101810000895DF92EF92FF920F931F93CF93DF9380
:10182000EC017B018DA59EA50E946D231A821B826F
:101830001D861C861B861A86C7016CE671E00E9415
:101840008A2C1986188607C0FE01E80FF91F17A613
:101850000196998788878885998587349105A4F3AF
:10186000EDA5FEA5A081B1811A962D913C911B9703
:10187000CF01F90109958E01015D1F4FDD24D3943D
:1018800044C08A859B858053954711F480E041C010
:10189000EDA5FEA5A081B18114962D913C911597DF
:1018A000CF01F9010995ADA5BEA5892BF9F0ED9100
:1018B000FC9111970680F781E02DCD0109958B836E
:1018C000AC85BD858D3051F4AC0FBD1F9F961C9229
:1018D000C701B8010E948A2CDA8217C0FE01EA0F04
:1018E000FB1F87A71196BD87AC870FC0ED91FC91B8
:1018F00011970480F581E02DCD010995892B29F4FC
:101900008A859B8501969B878A878A81813009F029
:10191000B8CFDF91CF911F910F91FF90EF90DF90A3
:1019200008959F92AF92BF92CF92DF92EF92FF9273
:101930000F931F93CF93DF93EC017B018BA59CA5A5
:101940000E946D231F821E821B861A861B821F8A9D
:10195000188E198E1A8E1B8E1C8EEBA5FCA5A081ED
:10196000B1811A962D913C911B97CF01F9010995F0
:101970008E01095E1F4F95E0A92EB12C99249394F6
:1019800081E0C82ED12C5AC08A859B858858934106
:1019900011F480E059C0EBA5FCA5A081B18114969B
:1019A0002D913C911597CF01F9010995ABA5BCA5E7
:1019B000892B51F0ED91FC9111970680F781E02D74
:1019C000CD0109958B8310C0ED91FC911197048096
:1019D000F581E02DCD010995892B31F48A859B8510
:1019E00001969B878A872AC04B81423041F48E81C1
:1019F0009F81892B99F44F8BDF82CE821FC04330A9
:101A000069F48E819F81049749F44B8FBF82AE8227
:101A1000C701B8010E948A2C998210C02E813F8193
:101A2000C9010197039750F4423041F0FE01E20FE3
:101A3000F31F478B2F5F3F4F3F832E838E819F8104
:101A400005970CF4A1CF8981DF91CF911F910F9160
:101A5000FF90EF90DF90CF90BF90AF909F90089550
:101A6000DF92EF92FF920F931F93CF93DF93EC01DE
:101A70007B011B821F861E86CB016CE671E00E94F3
:101A80008A2C1882E9A5FAA5A081B1811A962D9118
:101A90003C911B97CF01F901099589A59AA56DE69F
:101AA00071E00E94772B68EE73E080E090E00E9486
:101AB000372D89A59AA50E946D231986188607C01F
:101AC000FE01E80FF91F158E019699878887888592
:101AD00099858B309105A4F38E01035E1F4FDD24A1
:101AE000D39436C0ED91FC9111970480F581E02DDF
:101AF000CD010995892B61F1E9A5FAA5A081B181F4
:101B000016962D913C911797CF01F90109958B837A
:101B1000AE85BF858D30A9F4AC0FBD1F5D961C92BC
:101B2000C701B8010E948A2CD882E9A5FAA5A08134
:101B3000B1811A962D913C911B97CF01F90109951E
:101B400007C0FE01EA0FFB1F858F1196BF87AE8786
:101B50008881A9A5BAA5813029F6CD0160E771E099
:101B60000E94772B68EE73E080E090E00E94372DB2
:101B7000DF91CF911F910F91FF90EF90DF9008952B
:101B80000F931F938B0181E00E949B2DF80191839D
:101B900080831F910F9108950F931F938B0180E015
:101BA0000E949B2DF801918380831F910F910895CE
:101BB000EF92FF920F931F937C0181E00E94982D7A
:101BC0008CE190E00E94B82C182F092F62E043E0CE
:101BD00020E00E948126F70115A706A7812F902FEC
:101BE00040E855E260E070E00E9468248CE190E0FB
:101BF0000E94B82C182F092F62E143E120E00E94D7
:101C00008126F70111A702A7812F902F40E056E906
:101C100060E070E00E9468248CE190E00E94B82CA3
:101C2000182F092F66E047E020E00E948126F70187
:101C300013A704A7812F902F40E855E260E070E0E1
:101C40000E9468241F910F91FF90EF900895409695
:101C50000E94A32C089540966CE671E00E94702CBF
:101C60000895FC01848195810895CF92DF92EF92CF
:101C7000FF920F931F937A0126E1C22ED12CC80E3A
:101C8000D91EC6010E94170AC60163E070E00E94D7
:101C9000170A0027F7FC0095102FC801B7010E9412
:101CA000372DC60164E070E00E94170A1F910F9162
:101CB000FF90EF90DF90CF900895CF92DF92EF9258
:101CC000FF920F931F937B0136E1C32ED12CC80ED8
:101CD000D91EC60160E070E00E94170A0027F7FCD9
:101CE0000095102FC801B7010E94372DC60164E08E
:101CF00070E00E94170A1F910F91FF90EF90DF9004
:101D0000CF9008952F923F924F925F926F927F9261
:101D10008F929F92AF92BF92CF92DF92EF92FF92FB
:101D20000F931F93DF93CF93CDB7DEB760970FB6B6
:101D3000F894DEBF0FBECDBF5C012B013A01190143
:101D4000FC01108268EB7BE080E090E00E94372D80
:101D500046E1842E912C8A0C9B1C05C0C4010E9474
:101D6000A004F5018083F50180818130B9F7C401B9
:101D70000E9413018130D9F7C4010E940F016C0148
:101D8000C401BE016F5F7F4FAE014B5F5F4F0E948A
:101D9000DF00C401BE01675F7F4FAE01435F5F4F4D
:101DA0000E94F700F5018281813009F448C0ED847A
:101DB000FE840F8518892D813E814F815885C7018A
:101DC000821B930B97FF03C0909581959F4F8215BF
:101DD00093054CF4C40164E070E00E94170A81E0AE
:101DE000F501828380C0E216F306040715078CF420
:101DF000C6018A5A9040459708F462C0F4EBCF16AA
:101E0000D1040CF46AC024EBC216D10409F46BC0EF
:101E100049C02E153F05400751070CF064C0C601AC
:101E20000B978355914008F04BC0F4EBCF16D104CB
:101E3000CCF124EBC216D10409F455C04EC0F50113
:101E40008381813009F44FC0E984FA840B851C85B5
:101E500029813A814B815C81C701821B930B97FFDB
:101E600003C0909581959F4F821593054CF4C40152
:101E700064E070E00E94170A81E0F501838333C0BB
:101E8000E216F306040715078CF4C601845091404E
:101E90004597B0F085EA9FEFC80ED91E93EBC9169F
:101EA000D10408F5C50162E070E01AC02E153F05A7
:101EB00040075107C4F4C60180559040459728F467
:101EC000C501B2010E945D0E0EC0E5EAFFEFCE0E25
:101ED000DF1EF3EBCF16D10430F4C50161E070E0F2
:101EE000A3010E94350EF5018381813089F41282AD
:101EF000138289E297E063E771E00E947A2B89E21E
:101F000097E065E771E00E947A2B81E090E008C0DD
:101F100089E297E065E771E00E947A2B83E090E028
:101F2000F5019583848360960FB6F894DEBF0FBEEB
:101F3000CDBFCF91DF911F910F91FF90EF90DF9078
:101F4000CF90BF90AF909F908F907F906F905F9059
:101F50004F903F902F900895469664E070E00E9465
:101F6000170A89E297E067E771E00E947A2B0895EB
:101F7000CF92DF92EF92FF920F931F93CF93DF9355
:101F8000EC017B016A018C010A5E1F4FC8010E94AF
:101F900013018130D9F7C8010E940F019C018C897F
:101FA0009D8981309105E9F44A895B89C901841BC7
:101FB000950B0A964597C8F1241735073CF4888994
:101FC0009989821793070CF052C041C042175307FA
:101FD0000CF04DC088899989281739070CF047C043
:101FE00040C00297D1F44E855F85C901841B950BD3
:101FF0000A964597D0F04217530734F48C859D8597
:1020000028173907A4F523C02417350784F58C85D4
:102010009D85821793075CF524C04C855D85C901B9
:10202000841B950B0A96459750F4CE01B7010E9488
:102030005D0E8A859B8501969B878A8718C08E8551
:102040009F85281739073CF44217530784F4CE01C3
:1020500061E070E009C0821793074CF4241735073C
:1020600034F4CE0162E070E0A6010E94350E8A854C
:102070009B858530910549F486E090E09B878A87AF
:1020800089E297E069E771E03AC08B30910589F405
:1020900001E010E01D8B0C8B8CE090E09B878A8721
:1020A00089E297E06BE771E00E947A2B1D830C8335
:1020B00035C08F30910569F482E090E09D8B8C8B68
:1020C00080E190E09B878A8789E297E06DE771E085
:1020D00016C08531910549F486E190E09B878A8797
:1020E00089E297E06FE771E00AC04B9769F48CE1F1
:1020F00090E09B878A8789E297E061E871E00E941F
:102100007A2B81E090E008C089E297E063E871E013
:102110000E947A2B84E090E09D838C83DF91CF91A5
:102120001F910F91FF90EF90DF90CF900895FF9255
:102130000F931F93CF93DF93EC0118821F821E82AF
:102140008C010A5E1F4FFF24F39416C02233310521
:1021500011F4F88211C0C8010E94350788838130CC
:1021600031F4C8010E942E038883813029F08E81CA
:102170009F8101969F838E8388812E813F8181304C
:1021800029F72233310549F489E297E067E871E0E5
:102190000E947A2B83E090E015C08A859B854C973E
:1021A00049F489E297E067E871E00E947A2B85E0C4
:1021B00090E008C089E297E067E871E00E947A2B1E
:1021C00084E090E09D838C83DF91CF911F910F91EC
:1021D000FF900895FF920F931F93CF93DF93EC012D
:1021E000188219821F821E82198618868C010A5E47
:1021F0001F4FFF24F39416C02233310511F4F882E7
:1022000011C0C8010E94B3088883813031F4C8012D
:102210000E94B8068883813029F08E819F810196C3
:102220009F838E8388812E813F81813029F72233DD
:10223000310549F489E297E069E871E00E947A2B60
:1022400083E090E008C089E297E069E871E00E94CD
:102250007A2B82E090E09D838C83DF91CF911F9158
:102260000F91FF9008950F931F93CF93DF93EC018D
:1022700018828C010A5E1F4FC8010E941301813031
:10228000D9F7C8010E940F019C019D878C878C544F
:102290009F4F9F878E878856914024F0245B304063
:1022A0003F872E872C853D85C901825F9E4F9B8B82
:1022B0008A8B8856914024F02A5530403B8B2A8BDC
:1022C0002C853D85C901865A9F4F998B888B8856EE
:1022D00091404CF02E503140398B288B04C0C801FE
:1022E0000E94AC05888388818130C9F789E297E034
:1022F0006BE871E00E947A2B81E090E09D838C83F3
:10230000DF91CF911F910F9108950F931F938C012F
:1023100068E873E180E090E00E94372DC80146969E
:102320000E94470AF8011582148213861286158AC4
:10233000148A1F910F9108950895EF92FF920F93C1
:102340001F93DF93CF93CDB7DEB760970FB6F894A6
:10235000DEBF0FBECDBF8C01FB01242F01581F4FE4
:102360007E010894E11CF11CC701B801AF010E9475
:102370002527C8018E579040B7010E94BE2781E0F3
:1023800060960FB6F894DEBF0FBECDBFCF91DF9140
:102390001F910F91FF90EF900895EF92FF920F938E
:1023A0001F93DF93CF93CDB7DEB760970FB6F89446
:1023B000DEBF0FBECDBF8C01FB01242FBC016158D5
:1023C0007F4F7E010894E11CF11CC701AF010E9400
:1023D0002527C8010196B7010E94BE2781E0F801B8
:1023E000808360960FB6F894DEBF0FBECDBFCF914D
:1023F000DF911F910F91FF90EF900895CF92DF92A0
:10240000EF92FF920F931F93DF93CF93CDB7DEB779
:10241000C95BD0400FB6F894DEBF0FBECDBF6C01D4
:102420008E01045C1F4FC8010E94F626D60111964A
:10243000F8018EE701900D928150E1F77E0108943A
:10244000E11CF11CC70140E052EA63E170E00CECD2
:1024500012E120E730E40E941727D601A158BF4FB0
:10246000F70188E001900D928150E1F78E010E5E38
:102470001F4FC8010E94D626D601A957BF4FF801A9
:102480008AE001900D928150E1F7C601019640E883
:1024900055E260E070E00E9443288E01075F1F4F05
:1024A000C8010E94AF26D601AF56BF4FF80189E0A0
:1024B00001900D928150E1F7CE014C960E94D026FA
:1024C000D601A456BF4FFE017E9689E001900D9281
:1024D0008150E1F785EA90E0C80ED91E8FA198A53A
:1024E000F601918380838BE59FEFC80ED91ECE0144
:1024F00089960E94B026D601A755BF4FFE01BB9614
:1025000089E001900D928150E1F7D601AE54BF4FA2
:10251000FE01F49688E001900D928150E1F7C754D6
:10252000DF4F0FB6F894DEBF0FBECDBFCF91DF9166
:102530001F910F91FF90EF90DF90CF9008950F9330
:102540001F938C0101960E94F626C80181589F4F67
:102550000E941627C80189579F4F0E94D626C8019E
:102560008F569F4F0E94AF26C80186569F4F0E94EC
:10257000D026C80189559F4F0E94B0261F910F9108
:1025800008958130910541F46F5F7F4F71F48EEEB5
:1025900091E00E949C0A0895892B39F46F5F7F4F68
:1025A00021F48EEE91E00E945E0A089580E090E0B2
:1025B0006FEF7FEF0E94C112089581E090E06FEF0E
:1025C0007FEF0E94C112089588ED91E00E94310EC4
:1025D000892B29F488ED91E00E943311089588ED4C
:1025E00091E00E94310E019729F488ED91E00E945C
:1025F000EA10089588ED91E00E94310E029729F4C7
:1026000088ED91E00E949710089588ED91E00E9476
:10261000310E049749F488ED91E060ED77E048EEE3
:1026200053E00E94B80F089588ED91E00E94310EAA
:10263000059729F488ED91E00E94AC0F089588ED8C
:1026400091E00E94310E039751F488ED91E060ED26
:1026500077E048EE53E022E330E00E94820E0895D6
:1026600088ED91E00E9485110895FF920F931F93CA
:10267000CF93DF938B010E94032DEB01FF24FA948B
:1026800009C00E94032D6C1B7D0B6017710710F0B1
:1026900080E008C0FEBC0DB407FEFDCF8EB58F3FB5
:1026A00081F781E0DF91CF911F910F91FF90089505
:1026B000FC014281242F30E0C90195958795806502
:1026C0008CBD40FF02C080E004C080E0463009F0CD
:1026D00081E08DBD808160E00E94702E0895DF92C0
:1026E000EF92FF920F931F93CF93DF93EC01D62EBF
:1026F00079018A010E945813CE016CE271E00E94B8
:1027000035138D2D80648EBD0DB407FEFDCF28E1FD
:1027100030E0D801C701022E04C0B695A795979561
:1027200087950A94D2F78EBD0DB407FEFDCF2850D1
:1027300030408FEF283F380761F7DD2011F485E93D
:1027400006C088E0D81611F487E801C08FEF8EBD6F
:102750000DB407FEFDCF8CE0D81631F48FEF8EBD9F
:102760000DB407FEFDCF8EB59FEF2FEF2EBD0DB43C
:1027700007FEFDCF8EB587FF04C0992311F091505D
:10278000F5CF8B83DF91CF911F910F91FF90EF9049
:10279000DF900895FC01808161E00E94702E8FEF30
:1027A0008EBD0DB407FEFDCF0895DC016EBDFA01AC
:1027B00020E030E00DB407FEFDCF80818EBD0DB46A
:1027C00007FEFDCF81818EBD2E5F3F4F329682E0A6
:1027D0002030380779F70DB407FEFDCF8FEF8EBD9F
:1027E0000DB407FEFDCF8FEF8EBD0DB407FEFDCFFC
:1027F0008FEF8EBD0DB407FEFDCF8EB513968C9373
:1028000013978F71853011F481E0089583E111965B
:102810008C931197CD010E94CA1380E00895CF9246
:10282000DF92EF92FF920F931F93CF93DF93EC0110
:102830007A018B0169018C81833039F059E0EE0C0B
:10284000FF1C001F111F5A95D1F7CE0168E1A801A6
:1028500097010E946F13882311F086E023C0CE01F8
:102860006EEFA6010E94D5138823E9F0CE0168E53A
:1028700072E00E943513882311F487E113C0CE0162
:102880006DE020E030E040E050E00E946F138823CC
:1028900041F48FEF8EBD0DB407FEFDCF8EB58823BA
:1028A00079F086E18983CE010E94CA1380E0DF912E
:1028B000CF911F910F91FF90EF90DF90CF900895EF
:1028C000CE010E94CA1381E0F2CFBF92CF92DF9275
:1028D000EF92FF920F931F93CF93DF93EC016B0165
:1028E0007A010E94032D8B01BB24BA9409C00E9477
:1028F000032D601B710B6D52714010F081E10BC014
:10290000BEBC0DB407FEFDCF8EB58B838F3F79F330
:102910008E3F39F08FE08983CE010E94CA1380E098
:102920002FC0D7011197EF28D9F08FEF8EBD20E08F
:1029300030E09FEF0BC00DB407FEFDCF8EB5F60162
:10294000E20FF31F80839EBD2F5F3F4F2A173B0787
:1029500090F30DB407FEFDCF8EB5AC0DBD1D8C936D
:102960008FEF8EBD0DB407FEFDCF8EB58FEF8EBD00
:102970000DB407FEFDCF8EB5CE010E94CA1381E0D3
:10298000DF91CF911F910F91FF90EF90DF90CF904B
:10299000BF900895CF92DF92EF92FF920F931F9313
:1029A000CF93DF93EC017A018B0169018C81833035
:1029B00039F0A9E0EE0CFF1C001F111FAA95D1F7FA
:1029C000CE0161E1A80197010E946F13882339F0BD
:1029D00084E08983CE010E94CA1380E006C0CE0144
:1029E000B60140E052E00E946514DF91CF911F9143
:1029F0000F91FF90EF90DF90CF900895BF92CF920C
:102A0000DF92EF92FF920F931F93CF93DF93EC012E
:102A1000B62E1C82198248830E94032D6B01888187
:102A200061E00E941D2E888161E00E94702E8CE082
:102A300060E00E941D2E8BE061E00E941D2E8DE063
:102A400061E00E941D2E8AE061E00E941D2E8AE056
:102A500061E00E94702E85E08A8382E58CBD1DBCFA
:102A600080E09FEF9EBD0DB407FEFDCF8F5F8A30E3
:102A7000C9F709C00E94032D6C197D09615D77407B
:102A800010F081E05EC0CE0160E020E030E040E088
:102A900050E00E946F13182F8B83813059F7CE01BD
:102AA00068E02AEA31E040E050E00E946F1382FFC4
:102AB00002C01C8311C080E02FEF2EBD0DB407FEB5
:102AC000FDCF9EB58F5F8430C1F79B839A3A11F09A
:102AD00082E037C082E08C838C81823021F0EE244A
:102AE000FF2487010FC0E12CF12C012D80E4182F69
:102AF00009C00E94032D6C197D09615D774010F0BB
:102B00008AE01FC0CE0167E320E030E040E050E003
:102B10000E946F13CE0169E2A80197010E946F1312
:102B20008B83882331F78C81823029F5CE016AE3CB
:102B300020E030E040E050E00E946F13882331F045
:102B400088E08983CE010E94CA1321C08FEF8EBD19
:102B50000DB407FEFDCF8EB5807C803C11F483E080
:102B60008C8380E09FEF9EBD0DB407FEFDCF2EB598
:102B70008F5F8330C1F7CE010E94CA1386E08B15A8
:102B800018F488E1898303C0BA8281E001C080E043
:102B9000DF91CF911F910F91FF90EF90DF90CF9039
:102BA000BF9008950F931F93CF93DF93DC01EB0148
:102BB0008A0180E090E020E2FE01E80FF91F208307
:102BC00001968B309105C1F757E040E024C0622F99
:102BD0002E3219F088E690E007C05A3051F15AE0E1
:102BE00048E018C0321729F1FC01019634913323D3
:102BF000C9F75417F0F02132E0F02F37D0F4822FCC
:102C000081568A3110F4622F6052FE01E40FF11DEB
:102C100060834F5F11962C91222311F02F32B9F669
:102C2000F801B183A08390E08881803219F091E0AF
:102C300001C090E0892FDF91CF911F910F910895EE
:102C40006F927F928F929F92AF92BF92CF92DF92BC
:102C5000EF92FF920F931F93CF93DF93EC017A01D2
:102C60008B012B81222309F480C089899A89AB8941
:102C7000BC8984179507A607B70708F476C085C0F6
:102C8000E114F1040105110551F41C821D821E821C
:102C90001F82188619861A861B8681E067C02885E0
:102CA00039854A855B85E98DFA8D858590E00996A1
:102CB000215030404040504039014A01082E04C0A4
:102CC00096948794779467940A94D2F72F5F3F4F36
:102CD0004F4F5F4F0894E108F108010911095701AE
:102CE000680104C0D694C794B794A7948A95D2F784
:102CF0000894E11CF11C011D111DA614B704C804A1
:102D0000D90428F0211531054105510549F48D8973
:102D10009E89AF89B88D8C839D83AE83BF8316C097
:102D2000A618B708C808D90811C04C815D816E810A
:102D30007F81898D9A8D94010E941E210894A1089B
:102D4000B108C108D108882331F40FC084E0882E6F
:102D5000912C8C0E9D1EA114B104C104D10429F73D
:102D6000E886F9860A871B8798CF80E0DF91CF91AC
:102D70001F910F91FF90EF90DF90CF90BF90AF9099
:102D80009F908F907F906F900895223009F078CFB8
:102D9000E7CFCF93DF93EC018C859D85AE85BF8512
:102DA00040E0611141E0BC01CD010E94F41E882386
:102DB00019F420E030E00AC08889282F30E095E03F
:102DC000220F331F9A95E1F7225B3B4FC901DF9138
:102DD000CF9108950F931F93CF93DF938C01FC0144
:102DE00083818823F1F1818187FF38C0C80161E0C8
:102DF0000E94C916EC010097A1F18881853E89F1F6
:102E0000F8018381823040F481899289A389B48951
:102E10008C8F9D8FAE8FBF8FF801858996899B8F90
:102E20008A8F85899689A789B08DCD01AA27BB276E
:102E30009D8B8C8BE0914804F0914904309751F0C0
:102E4000BE016A5E7F4FCE0148960995888D998DA7
:102E50009B8B8A8BF80181818F7781830E94B91EB9
:102E600004C081E0F801808380E0DF91CF911F9161
:102E70000F9108950F931F938C010E94EA16F80199
:102E800013821F910F910895FC018381882319F00B
:102E9000CF010E943A1708956F927F928F929F926E
:102EA000AF92BF92CF92DF92EF92FF920F931F9358
:102EB000DF93CF9300D000D0CDB7DEB77C015A01AD
:102EC0006B01DC0113968C911397813009F091C04E
:102ED00011968C9181FF8DC0A0C00097A105B1050E
:102EE00011F481E087C0F701608471848284938447
:102EF000C701B601A5010E942016882309F479C0F4
:102F0000D70159968D919C915A97A114B104C1048F
:102F1000D10489F455964D915D916D917C915897AE
:102F20000E949421882309F464C0F701158A168A47
:102F3000178A108E44C0D70114964D915D916D9102
:102F40007C9117979E012F5F3F4F0E941E2188237F
:102F500009F44FC0D7015996ED91FC915A974981D8
:102F60005A816B817C818789803149F4483FBFEF6A
:102F70005B07B0E06B07B0E07B0748F020C0483F3C
:102F80008FEF58078FEF68078FE07807C0F4CF0105
:102F90000E949421882369F1D70114964D915D9187
:102FA0006D917C91179759968D919C915A970FEF3F
:102FB0001FEF2FEF3FE00E9497208823D1F0F70109
:102FC000A18AB28AC38AD48A818180688183C70139
:102FD0000E94EA16882369F0B601A5016A147B04F1
:102FE0008C049D0410F4B401A301C7010E942016B3
:102FF00001C080E00F900F900F900F90CF91DF9164
:103000001F910F91FF90EF90DF90CF90BF90AF9006
:103010009F908F907F906F900895F701818992899A
:10302000A389B48984179507A607B70708F055CF79
:10303000E0CF2F923F924F925F926F927F928F924A
:103040009F92AF92BF92CF92DF92EF92FF920F9337
:103050001F93CF93DF93EC012A018B81882309F41E
:10306000B6C0898180FFB3C0C8C025014E185F0873
:103070003B0174E0272E312C2C0E3D1E4201A1C0D5
:10308000288539854A855B856FEFA62E61E0B62ECF
:10309000A222B3228B8179018A0199E016950795C6
:1030A000F794E7949A95D1F7E98DFA8D823049F437
:1030B000428D538D648D758D4E0D5F1D601F711F88
:1030C0003FC0D480DA94DE20A114B104D9F4DD200D
:1030D000C9F4211531054105510549F48D899E89B1
:1030E000AF89B88D8C839D83AE83BF830BC04C8129
:1030F0005D816E817F81CF0191010E941E21882315
:1031000009F465C0E98DFA8D4C815D816E817F8106
:103110004250504060407040058404C0440F551F29
:10312000661F771F0A94D2F786859785A089B18993
:10313000480F591F6A1F7B1F4D0D511D611D711DC9
:1031400080E092E08A199B0984018815990508F4AA
:103150008C0182E00030180709F067C080914A04B2
:1031600090914B04A0914C04B0914D04481759071D
:103170006A077B0709F459C080914E0690914F066B
:1031800093010E94CA14882349F421C09501225B4F
:103190003B4FC301B901A8010E941831600E711E96
:1031A000980140E050E088859985AA85BB85820F0B
:1031B000931FA41FB51F88879987AA87BB87801A8A
:1031C000910A8114910409F05BCFA20102C04FEF74
:1031D0005FEFCA01DF91CF911F910F91FF90EF90A8
:1031E000DF90CF90BF90AF909F908F907F906F9027
:1031F0005F904F903F902F900895A988BA88CB8810
:10320000DC88E884F9840A851B859A0140E050E057
:10321000D601C5018E199F09A00BB10B28173907DC
:103220004A075B0708F021CF23CFCB01BA0140E06A
:103230000E94F41E882309F0A9CFC9CFDF93CF9352
:103240000F92CDB7DEB7BE016F5F7F4F41E050E018
:103250000E941918019719F02FEF3FEF03C08981E1
:10326000282F30E0C9010F90CF91DF910895EF92A0
:10327000FF920F931F93CF93DF93EC018B818230EA
:1032800038F1E884F9840A851B85CE010E941E1955
:1032900097FD1EC088859985AA85BB854F96A11D7F
:1032A000B11D88879987AA87BB87F5E01695079592
:1032B000F794E794FA95D1F72E2D30E02F70307007
:1032C000E5E0220F331FEA95E1F7225B3B4F02C096
:1032D00020E030E0C901DF91CF911F910F91FF9065
:1032E000EF9008950F931F93CF93DF93EC018B0121
:1032F0008B81882309F040C0FB018789803109F068
:1033000041C082E08B831D8A1E8A1F8A188E808DA1
:10331000918DA0E0B0E025E0880F991FAA1FBB1F88
:103320002A95D1F7898B9A8BAB8BBC8B13C083E02A
:103330008B83F801428D538D648D758D4D8B5E8B23
:103340006F8B788F9E012F5E3F4FC8010E94F22144
:10335000882391F01A8F098F81E089831C821D8256
:103360001E821F82188619861A861B861C861D8659
:103370001E861F86188A01C080E0DF91CF911F91C1
:103380000F9108958032C1F7D2CF1F93CF93DF936F
:10339000EC01142F262F30E0F90155E0EE0FFF1F4E
:1033A0005A95E1F7E25BFB4F8385817121F0842F11
:1033B000827109F069C080914A0490914B04A091F8
:1033C0004C04B0914D048C879D87AE87BF87688B76
:1033D000F90145E0EE0FFF1F4A95E1F7E25BFB4F75
:1033E00084899589A0E0B0E0DC01992788278D8B3E
:1033F0009E8BAF8BB88F228D338DA90160E070E07A
:10340000482B592B6A2B7B2B4D8B5E8B6F8B788FC8
:10341000838590E088719070009751F4848D958D2C
:10342000A68DB78D898B9A8BAB8BBC8B81E00CC042
:10343000409751F59E012F5E3F4F898D9A8D0E94D6
:10344000F221882309F184E08B83812F8F70898397
:103450001C821D821E821F82188619861A861B8670
:1034600014FF18C0CE0140E050E060E070E00E9420
:103470004C17882379F40AC049895A896B897C8959
:10348000CE010E94201602C01B8280E0DF91CF9106
:103490001F91089515FDF0CF81E0F8CFCF93DF9312
:1034A000EC019C012C5F3F4F898D9A8D41E050E0EB
:1034B00060E070E00E945E228823A1F08D899E89E1
:1034C000AF89B88D0097A105B10559F48C819D8114
:1034D000AE81BF818D8B9E8BAF8BB88F89818068C9
:1034E000898381E0DF91CF9108952F923F924F928F
:1034F0005F927F928F929F92AF92BF92CF92DF9214
:10350000EF92FF920F931F93DF93CF9300D000D0E1
:1035100000D0CDB7DEB76C01162F072F5E834D8329
:10352000DC0113968C911397813009F06FC11196CD
:103530008C9181FF6BC188C1F601418952896389F1
:10354000748980859185A285B38584179507A60720
:10355000B70731F0C6010E942016882309F456C12E
:10356000812F902F9C0119014D805E8013C1D601DF
:103570005996ED91FC915A97DA01C90149E0B69547
:10358000A795979587954A95D1F774807A94782274
:103590008FEF882E81E0982E82229322772009F0E7
:1035A00053C08114910409F04FC0D60114964D9177
:1035B0005D916D917C9117974115510561057105DC
:1035C00081F455968D919D910D90BC91A02D009701
:1035D000A105B10561F1F60184839583A683B783C4
:1035E00033C0CF019E012F5F3F4F0E941E218823D1
:1035F00009F40CC129813A814B815C81D60159962D
:10360000ED91FC915A978789803149F4283FBFEFAB
:103610003B07B0E04B07B0E05B0778F008C0283FFD
:10362000EFEF3E07EFEF4E07EFE05E0730F0C60129
:103630000E944E1A882341F4E9C0D60114962D93B6
:103640003D934D935C93179780E092E08819990918
:1036500052018415950508F45C01D6015996ED9147
:10366000FC915A971496ED90FD900D911C9117972F
:103670008EEF9FEFAFEFBFEFE80EF91E0A1F1B1F83
:10368000058404C0EE0CFF1C001F111F0A94D2F722
:1036900086859785A089B189E80EF91E0A1F1B1F30
:1036A000E70CF11C011D111D90E0A91692E0B9066E
:1036B00039F580914A0490914B04A0914C04B0914B
:1036C0004D048E159F05A007B10771F410925006A6
:1036D0008FEF9FEFAFEFBFEF80934A0490934B04BF
:1036E000A0934C04B0934D0480914E0690914F06E8
:1036F000B801A70191010E940F148823B9F586C073
:103700008114910419F5D60118962D913D914D9192
:103710005C911B9751968D919D910D90BC91A02D20
:10372000281739074A075B0788F00E94B91E8823CB
:1037300009F46CC081E080935006E0924A04F09254
:103740004B0400934C0410934D0408C0C801B7010A
:1037500041E00E94F41E882309F458C09401225BC2
:103760003B4FC901B101A5010E941831950140E00C
:1037700050E0F60180859185A285B385820F931F65
:10378000A41FB51F80879187A287B3872A0C3B1C93
:103790004A185B08D60118962D913D914D915C9188
:1037A0001B974114510409F0E2CE51968D919D91E1
:1037B0000D90BC91A02D82179307A407B50748F47C
:1037C000F601218B328B438B548B818180688183FE
:1037D00011C08091480490914904892B59F08D8142
:1037E0009E81892B39F0D60111968C9111978068B2
:1037F00011968C93F601818183FF05C0C6010E945A
:10380000EA16882319F04D815E8105C081E0D6015A
:103810008C934FEF5FEFCA0126960FB6F894DEBF88
:103820000FBECDBFCF91DF911F910F91FF90EF9011
:10383000DF90CF90BF90AF909F908F907F905F90E0
:103840004F903F902F90089582FD76CE89CEDF92E3
:10385000EF92FF920F931F93CF93DF93EC0189892F
:103860009A89AB89BC89805E9F4FAF41B04008F018
:1038700071C0CE010E944E1A882309F46BC00E94C9
:10388000B91E882309F466C0E98DFA8DEC80FD80AD
:103890000E811F818EEF9FEFAFEFBFEFE80EF91E95
:1038A0000A1F1B1F058404C0EE0CFF1C001F111F04
:1038B0000A94D2F786859785A089B189E80EF91E0A
:1038C0000A1F1B1F81E080935006E0924A04F09289
:1038D0004B0400934C0410934D0480E092E0EEE41E
:1038E000F4E0DF019C011D9221503040E1F7DD241E
:1038F000D39411C0B801A7014D0D511D611D711D5B
:1039000080914E0690914F062EE434E00E940F14F1
:10391000882301F1D394E98DFA8D8481D81650F370
:1039200020E032E040E050E0058404C0220F331F65
:10393000441F551F0A94D2F789899A89AB89BC899B
:10394000820F931FA41FB51F898B9A8BAB8BBC8BE7
:1039500081E001C080E0DF91CF911F910F91FF9036
:10396000EF90DF9008958F929F92AF92BF92CF9287
:10397000DF92EF92FF920F931F93CF93DF936C012F
:10398000EB01942E852EA22E898D9A8DD6015A9602
:103990009C938E935997CB0140E050E060E070E03B
:1039A0000E942016BB2438C0CE010E943719FC01AA
:1039B000009709F493C055E016950795F794E7949E
:1039C0005A95D1F71E2D1F708081882311F0853EF6
:1039D000C9F4BB2099F420914A0430914B044091E2
:1039E0004C0450914D04D6011C962D933D934D935C
:1039F0005C931F9750961C93BB24B39480818823BB
:103A000059F418C0892D982DBF014BE050E00E9459
:103A10000B31009709F470C0E884F9840A851B858E
:103A200089899A89AB89BC89E816F9060A071B07B8
:103A300008F4BACFA6FE52C0A1FE50C0BB2051F080
:103A4000F6011089C60161E00E94C916EC010097D9
:103A500069F444C08B81823009F440C0CE010E94D9
:103A6000271C8823D9F110E0CEE4D4E080E2DE0107
:103A70001D928A95E9F7DE01292D382DC901FC0137
:103A80008BE001900D928150E1F7E0914804F091B4
:103A90004904309739F0BE01625F7F4FCE014096F6
:103AA000099508C081E298E2998B888B80E098E0C4
:103AB0009F878E87888999899B8B8A8B998F888F1E
:103AC0008E859F859F8B8E8B0E94B91E882331F037
:103AD000C601612F4A2D0E94C51901C080E0DF9107
:103AE000CF911F910F91FF90EF90DF90CF90BF90FB
:103AF000AF909F908F900895A7FEEACFEFCF2F92BF
:103B00003F924F925F926F927F928F929F92AF926D
:103B1000BF92CF92DF92EF92FF920F931F93DF93AA
:103B2000CF93CDB7DEB7C654D0400FB6F894DEBF02
:103B30000FBECDBF3C016B01DE01AE5BBF4F1196E6
:103B40005C934E9325962FAF25971C861F861FA248
:103B50001AA66115710509F480C0FC0183818823D0
:103B600009F07BC0FA0180818F32F1F08601ECE030
:103B7000EE2EF12CEC0EFD1E72E4A72EB12CAC0E35
:103B8000BD1E4E010894811C911C2796FFAEEEAE1F
:103B9000279767E2262E312C2C0E3D1E270124C0CC
:103BA0001196B183A08301C0FD01A081B1818C91E8
:103BB0008F32B1F3D60113968C91139782508230D5
:103BC000A8F28E01095D1F4F59966D917C915A970D
:103BD000C8010E947219882351F63FC0342D252D4B
:103BE0008701832F922F7C01F50180819181B4019F
:103BF000A5010E94D215882329F42FC03196D50142
:103C0000ED93FC93D501ED91FC9180818F32B1F35E
:103C10008823C9F0C701B801A40121E00E94B31CA8
:103C20008823D9F00C151D0519F0C8010E943A1718
:103C30002796EEADFFAD2797EE16FF0679F6C10188
:103C4000322D292FCDCFC301B801A40125962FAD68
:103C500025970E94B31C182F01C010E0CE01879653
:103C60000E944417CE010C960E944417812FCA5B14
:103C7000DF4F0FB6F894DEBF0FBECDBFCF91DF91FF
:103C80001F910F91FF90EF90DF90CF90BF90AF907A
:103C90009F908F907F906F905F904F903F902F906C
:103CA0000895FB01242F6091460470914704AF01F1
:103CB0000E947F1D08950F931F93CF93DF93EC0114
:103CC000662331F0A396D0934704C0934604A3978C
:103CD0008E010D5D1F4FC8010E943A172596C8013D
:103CE000BE010E947219DF91CF911F910F9108952B
:103CF0000F931F93CF93DF93EC010E94FE14882350
:103D0000C9F08E010B5F1F4FC801BE0141E00E9448
:103D1000301F882339F4C801BE0140E00E94301FE3
:103D2000882341F0CE0161E00E945B1E882319F0D8
:103D300081E001C080E0DF91CF911F910F91089544
:103D4000DF93CF930F92CDB7DEB769830496BE01A0
:103D50006F5F7F4F41E050E00E94751A20E030E035
:103D6000019711F421E030E0C9010F90CF91DF916C
:103D7000089580915006882399F140914A0450910A
:103D80004B0460914C0470914D0480914E069091CB
:103D90004F062EE434E00E940F14882319F140915D
:103DA0005106509152066091530670915406411588
:103DB00051056105710591F080914E0690914F0675
:103DC0002EE434E00E940F14882361F01092510613
:103DD00010925206109253061092540610925006FA
:103DE00081E0089580E00895DF92EF92FF920F93B3
:103DF0001F937B018C01D42E80914A0490914B0437
:103E0000A0914C04B0914D048E159F05A007B107F9
:103E1000C1F00E94B91E8823E1F080914E06909176
:103E20004F06B801A7012EE434E00E94CA1488238B
:103E300081F0E0924A04F0924B0400934C041093FA
:103E40004D04DD2011F481E005C081E0809350062F
:103E500001C080E01F910F91FF90EF90DF900895D7
:103E60008F929F92AF92BF92CF92DF92EF92FF928A
:103E70000F931F93CF93DF936C01142F70934F0612
:103E800060934E06FC01178A82E090E0A0E0B0E06B
:103E900080839183A283B3831092500610925106BF
:103EA0001092520610925306109254068FEF9FEF15
:103EB000AFEFBFEF80934A0490934B04A0934C0460
:103EC000B0934D04442321F488249924540140C024
:103ED000453008F01EC160E070E080E090E040E016
:103EE0000E94F41E882309F414C1C12FD0E0219749
:103EF000FE0174E0EE0FFF1F7A95E1F7E25BFB4FE6
:103F0000E254FE4F8081EE5BF14090E08F7790703D
:103F1000892B09F0FEC0E653FE4F80819181A2817A
:103F2000B38184369105A105B10508F4F2C064E0BF
:103F3000CC0FDD1F6A95E1F7CC5ED94F8880998060
:103F4000AA80BB8081149104A104B10409F4E1C0EA
:103F5000C501B40140E00E94F41E882309F4D9C0D1
:103F60008091590490915A048050924009F0D1C038
:103F700020915E04222309F4CCC080915C049091CE
:103F80005D04892B09F4C5C080915B04882309F482
:103F9000C0C0F601228B80915B048483158661E0AA
:103FA00070E007C04F5FF60145874150483008F088
:103FB000B0C0F6014585848190E09B01042E02C0CB
:103FC000220F331F0A94E2F78217930759F72091C3
:103FD0006404309165042115310519F040E050E08A
:103FE00008C0209172043091730440917404509180
:103FF0007504F6012583368347835087E0905C047F
:10400000F0905D0400E010E0E80CF91C0A1D1B1D97
:10401000E38AF48A058B168B80915F04909160048B
:10402000918F808F60915E0470E080E090E00E944C
:10403000A32E6E0D7F1D801F911FF601628F738F5F
:10404000848F958F20915F043091600455E0220F9A
:10405000331F5A95E1F721503E4F232F33272695E2
:1040600040E050E0260F371F481F591F268737872B
:10407000408B518B8091610490916204009719F0FC
:10408000A0E0B0E008C080916E0490916F04A09110
:104090007004B091710485017401E21AF30A040BF3
:1040A000150BA8019701280F391F4A1F5B1FF60146
:1040B000058404C056954795379527950A94D2F7FD
:1040C0002187328743875487253FFFE03F07F0E091
:1040D0004F07F0E05F0720F48CE0F601878B19C0F2
:1040E000255F3F4F4040504018F480E1F6010EC07C
:1040F00080917A0490917B04A0917C04B0917D041E
:10410000F601828F938FA48FB58F80E2878B81E039
:1041100001C080E0DF91CF911F910F91FF90EF9050
:10412000DF90CF90BF90AF909F908F9008956F9247
:104130007F928F929F92AF92BF92CF92DF92EF9237
:10414000FF920F931F93CF93DF93EC015A016B0102
:1041500038014901423051056105710508F45EC01E
:1041600089859A85AB85BC850196A11DB11D8417F3
:104170009507A607B70708F451C08F89803129F445
:10418000E52EF62E072F11270CC0803209F046C00D
:104190007A018B0187E016950795F794E7948A9545
:1041A000D1F78B899C89AD89BE89E80EF91E0A1F5B
:1041B0001B1FC801B70141E00E94F41E882371F162
:1041C0008F89803149F4F501F070EE0FFF1FE25B3B
:1041D000FB4F718260820DC0F501EF77F070EE0F3A
:1041E000FF1FEE0FFF1FE25BFB4F60827182828236
:1041F00093828A89823080F08D819E81AF81B885DB
:10420000E80EF91E0A1F1B1FE0925106F09252069B
:10421000009353061093540681E001C080E0DF91C3
:10422000CF911F910F91FF90EF90DF90CF90BF90B3
:10423000AF909F908F907F906F900895CF92DF9274
:10424000EF92FF920F931F93CF93DF93EC017A01CC
:104250008B01690189859A85AB85BC850196A11D75
:10426000B11D84179507A607B70708F453C08F89B7
:10427000803129F45527412F302F2F2D0CC080324B
:1042800009F048C09A01AB0167E05695479537950C
:1042900027956A95D1F78B899C89AD89BE89280FAE
:1042A000391F4A1F5B1F80914A0490914B04A091D3
:1042B0004C04B0914D04281739074A075B0739F0C1
:1042C000CA01B90140E00E94F41E882319F18F89C8
:1042D000803159F4F701F070EE0FFF1FE25BFB4FE6
:1042E00080819181A0E0B0E00EC0F701EF77F0701F
:1042F000EE0FFF1FEE0FFF1FE25BFB4F80819181EE
:10430000A281B381BF70F60180839183A283B383BE
:1043100081E001C080E0DF91CF911F910F91FF906C
:10432000EF90DF90CF900895AF92BF92CF92DF923F
:10433000EF92FF920F931F93DF93CF9300D000D0A3
:10434000CDB7DEB76C017A018B0182E090E0A0E08E
:10435000B0E0F60180839183A283B3835E01089469
:10436000A11CB11CC601B801A70195010E941E2124
:10437000882341F1C601B801A70100E010E020E068
:1043800030E00E9497208823E9F0E980FA800B81D1
:104390001C81F6018789803151F4F8EFEF16FFEFA9
:1043A000FF06F0E00F07F0E01F07E0F209C088EF1A
:1043B000E8168FEFF8068FEF08078FE0180790F2E6
:1043C00081E001C080E00F900F900F900F90CF918F
:1043D000DF911F910F91FF90EF90DF90CF90BF90F2
:1043E000AF9008954F925F926F927F928F929F92BB
:1043F000AF92BF92CF92DF92EF92FF920F931F93F3
:10440000DF93CF9300D000D0CDB7DEB76C014983E6
:104410005A836B837C833901EE24FF2487012E01AC
:104420000894411C511C812CE2E09E2EA12CB12C41
:1044300049815A816B817C81C60192010E941E21B3
:10444000882339F1D501C401F601058404C0880F21
:10445000991FAA1FBB1F0A94D2F7E80EF91E0A1F64
:104460001B1F29813A814B815C818789803131F41E
:10447000285F3F4F40405040D8F205C0285F3F4F73
:104480004F4F5F40A8F2F301E082F1820283138371
:1044900081E00F900F900F900F90CF91DF911F91BF
:1044A0000F91FF90EF90DF90CF90BF90AF909F90D3
:1044B0008F907F906F905F904F9008952F923F92D2
:1044C0004F925F926F927F928F929F92AF92BF9224
:1044D000CF92DF92EF92FF920F931F93DF93CF93D0
:1044E000CDB7DEB72F970FB6F894DEBF0FBECDBFA6
:1044F0001C014A875B876C877D873F872E87DC019D
:1045000019968D919D910D90BC91A02D0196A11DA4
:10451000B11D8E839F83A887B987F901008111811E
:1045200022813381011511052105310549F048012A
:1045300059010894811C911CA11CB11C1D8210C042
:10454000D1018D909D90AD90BC901D828A859B85F8
:10455000AC85BD850197A105B10511F491E09D835E
:10456000750164014424552432018E010F5F1F4FF1
:10457000F10181859285A385B485481659066A069E
:104580007B0608F090C08E819F81A885B9858C1527
:104590009D05AE05BF0550F4A2E08A2E912CA12CFA
:1045A000B12CF2E0CF2ED12CE12CF12CC101B701BE
:1045B000A60198010E941E21882309F474C08981F4
:1045C0009A81AB81BC81A70196012F5F3F4F4F4F6E
:1045D0005F4F0097A105B10519F049015A010DC0BF
:1045E000281939094A095B098A859B85AC85BD85EF
:1045F000281739074A075B0759F00894411C511CDA
:10460000611C711C0894C11CD11CE11CF11CB0CFB1
:10461000C101A601B7010FEF1FEF2FEF3FE00E948E
:104620009720882399F43FC0260137010894410858
:10463000510861087108C101B301A2019701860107
:104640000E949720882379F1730162018C149D04E4
:10465000AE04BF0448F3AE85BF854D915D916D9169
:104660007C91411551056105710539F0C101950134
:1046700084010E9497208823B1F0EE85FF85808217
:104680009182A282B382FD81FF2359F00894811C9C
:10469000911CA11CB11CD1018D929D92AD92BC9236
:1046A000139781E001C080E02F960FB6F894DEBF2B
:1046B0000FBECDBFCF91DF911F910F91FF90EF9073
:1046C000DF90CF90BF90AF909F908F907F906F9032
:1046D0005F904F903F902F900895FC018091550678
:1046E000909156068E179F0711F480E00895838DF0
:1046F0008E7F838F9FB7F8941092970680919706CC
:1047000080939806F0935606E09355069FBF81E08C
:1047100008950F931F93CF93DF93FC01838DA6859C
:10472000B7859585082F027081FF05C08C9189237C
:1047300009F454C004C08C91892309F04FC08389C7
:10474000948920E001972FEF8F3F9207D9F7C58911
:10475000D689A685B785758560E031E040E050E0F8
:1047600010E0CE01212F01972FEF8F3F9207D9F74D
:104770008C91872311F0632B03C0832F80956823CE
:10478000330F4F5F5F4F4830510559F78789908D40
:1047900020E001972FEF8F3F9207D9F70111609525
:1047A000809197062091980690E001968F73907003
:1047B00030E08217930779F0E0919706F0E0E95A2C
:1047C000F94F60838091970690E001968F73907007
:1047D0008093970603C0838D8160838FDF91CF9193
:1047E0001F910F910895809155069091560600975C
:1047F00011F00E94892308951F920F920FB60F9215
:1048000011242F933F934F935F936F937F938F93D5
:104810009F93AF93BF93EF93FF930E94F323FF9176
:10482000EF91BF91AF919F918F917F916F915F9128
:104830004F913F912F910F900FBE0F901F901895A1
:104840001F920F920FB60F9211242F933F934F9305
:104850005F936F937F938F939F93AF93BF93EF93E8
:10486000FF930E94F323FF91EF91BF91AF919F912E
:104870008F917F916F915F914F913F912F910F9009
:104880000FBE0F901F9018951F920F920FB60F92A8
:1048900011242F933F934F935F936F937F938F9345
:1048A0009F93AF93BF93EF93FF930E94F323FF91E6
:1048B000EF91BF91AF919F918F917F916F915F9198
:1048C0004F913F912F910F900FBE0F901F90189511
:1048D000CF92DF92EF92FF920F931F93CF93DF93CC
:1048E000EC017A018B011A8E198E188E1F8A1E8A8E
:1048F0001D8A1C8A1B8A20E030E06901CC0CDD1C7B
:10490000C20ED31EB601660F771F660F771FAB016D
:1049100048585F4FFA0185919591A591B4918E15F4
:104920009F05A007B107E9F4FB01E458FF4F85910B
:1049300094919C8B8B8BFB01E258FF4F8591949156
:104940009E8B8D8BFB01E058FF4F85919491988F42
:104950008F8BFB01EE57FF4F859194919A8F898F32
:1049600006C02F5F3F4F2C30310509F0C6CF8F892D
:10497000988D892B09F449C04C85463108F03DC01B
:1049800090916800483010F484E005C04E3010F07B
:1049900082E001C081E0892B80936800483028F4D0
:1049A000EDE6F0E0ADE6B0E00BC04E3028F0ECE60E
:1049B000F0E0ACE6B0E004C0EBE6F0E0ABE6B0E07F
:1049C0005081483040F481E090E002C0880F991F88
:1049D0004A95E2F710C0242F30E04E3018F42850EA
:1049E000304002C02E50304081E090E002C0880F7D
:1049F000991F2A95E2F7852B8C93898D9A8D20E05B
:104A000001972FEF8F3F9207D9F7CE010E946D23B8
:104A1000DF91CF911F910F91FF90EF90DF90CF909A
:104A2000089520915506309156062817390731F41C
:104A30009091980680919706981719F42FEF3FEF01
:104A40000FC0E0919806F0E0E95AF94F208180917B
:104A5000980690E001968F7390708093980630E0EE
:104A6000C901089520915506309156062817390737
:104A700019F020E030E00EC0809197062091980652
:104A800090E0805C9F4F821B910960E470E00E947F
:104A9000C22E9C01C90108950F931F93DC01599602
:104AA0008D919C915A97892B49F481E090E013965F
:104AB0009C938E93129720E030E097C00FB7F89444
:104AC0005B968C915B975196ED91FC915297509625
:104AD0002C91509781FF8DC08081822B80835996C5
:104AE0008D919C915A97059620E001972FEF8F3F6B
:104AF0009207D9F75B968C915B9781FF35C031E0C7
:104B000040E050E070E010E0832F90E08623972390
:104B10005196ED91FC91529750962C915097892B7C
:104B200029F0808120952823208303C08081822B57
:104B3000808359968D919C915A97212F01972FEF41
:104B40008F3F9207D9F7330F4F5F5F4F48305105C2
:104B5000D9F65196ED91FC915297908150968C9197
:104B600050978095892333C031E040E050E070E0F9
:104B700010E0832F90E0862397235196ED91FC91CE
:104B8000529750962C915097892B21F08081822B3F
:104B9000808304C0808120952823208359968D919D
:104BA0009C915A97212F01972FEF8F3F9207D9F7AA
:104BB000330F4F5F5F4F48305105D9F65196ED9155
:104BC000FC915297808150969C915097892B8083BD
:104BD0000FBF59968D919C915A9720E001972FEF26
:104BE0008F3F9207D9F721E030E0C9011F910F9163
:104BF0000895808120952823208371CF2091550628
:104C0000309156062817390749F49FB7F894109247
:104C1000970680919706809398069FBF08952091EC
:104C20005506309156062817390731F490919806A9
:104C300080919706981719F42FEF3FEF0AC0E09183
:104C40009806F0E0E95AF94F8081282F332727FD95
:104C50003095C90108951F93CF93DF93EC01162F70
:104C6000862F60E00E941D2E8B8D81FD04C0812F58
:104C700061E00E94702E1C87212F30E0C901865C04
:104C80009E4FFC0184918D872A5D3E4FF90164910E
:104C9000E62FF0E0EE0FFF1FE45EFE4F859194914A
:104CA0009F878E87DF91CF911F910895FF920F9379
:104CB0001F938C01F62E862F61E00E941D2E8F2DF2
:104CC00061E00E94702E8F2D90E0FC01E65CFE4FAB
:104CD000E491D8015096EC9350978A5D9E4FFC0169
:104CE0006491E62FF0E0EE0FFF1FEE5EFE4F859120
:104CF000949152969C938E9351971F910F91FF9090
:104D00000895FF920F931F938C01F62EFC011382DE
:104D1000128288EE93E0A0E0B0E084839583A683BE
:104D2000B78380EA91E091838083148A138A168A7C
:104D3000158A108E178A128E118E838D2170220F84
:104D40008C7F822B838FC801642F0E945626C80156
:104D50006F2D0E942B261F910F91FF9008950895AB
:104D6000DF93CF93CDB7DEB728970FB6F894DEBFA9
:104D70000FBECDBFFC0188EB91E0918380833B9611
:104D8000DE01119688E00D9001928150E1F728969E
:104D90000FB6F894DEBF0FBECDBFCF91DF9108955F
:104DA000FC0182EC91E091838083089508951F9324
:104DB000FC011681A081B18112962D913C9113972F
:104DC000F90109951150181B812F1F910895FC01BD
:104DD000A081B18114962D913C911597F901099507
:104DE0008E5F089582E0089588E00895FC011286A0
:104DF0001186148615861782108615820E96918369
:104E00008083E458FF4F89E297E09183808308957F
:104E1000FC01E458FF4FA081B181ED91FC91119705
:104E20000284F385E02DCD010995089508950F932F
:104E30001F93FC0140835183628373830483158332
:104E4000268337831F910F910895CF93DF93FC0141
:104E5000128281E0838355834483268380EB91E033
:104E600091838083EF012796DB0188E00D90099202
:104E70008150E1F71786DF91CF910895FC016623F9
:104E800011F482850895613011F4818508956230AE
:104E900029F487819085A185B28512C0633011F411
:104EA00087810895643011F486850895653011F482
:104EB00085850895663049F483859485A585B685F2
:104EC000892F9A2FAB2FBB270895673011F4838564
:104ED0000895683011F4878508950480F581E02DE8
:104EE000E60FF11D399780810895FC018681875F67
:104EF00008950F93DF93CF9300D0CDB7DEB7FC01B9
:104F0000062F442341F1862F8D57823020F06131E6
:104F100011F0633101F5CF0184589F4F9A83898343
:104F2000FC01A081B181ED91FC9111970190F0817C
:104F3000E02DCD016DE70995E981FA81A081B1816C
:104F4000ED91FC91119760E260270190F081E02DD6
:104F5000CD0109950DC0E458FF4F0190F081E02D7F
:104F6000A081B1812D913C91CF01602FF90109956C
:104F70000F900F90CF91DF910F910895CF92DF9214
:104F8000FF920F931F93CF93DF936C01EB016EE7BA
:104F900040E00E947927E881F9810280F381E02DC9
:104FA000CE010995082FE881F9810280F381E02D77
:104FB000CE010995F82E10E00E5F1F4FC601612F3C
:104FC00041E00E94792782E0F80EC6016F2D41E092
:104FD0000E947927C6016A8141E00E947927C601B3
:104FE0006B8141E00E947927FB808A81F80E00E006
:104FF00010E018C0E881F9810190F081E02DCE0128
:10500000602F0995682FC60141E00E947927E88149
:10501000F9810190F081E02DCE01602F0995F80E05
:105020000F5F1F4FE881F9810280F381E02DCE01EF
:10503000099590E008171907ECF2F094C6016F2D5E
:1050400041E00E947927C6010E940827DF91CF9195
:105050001F910F91FF90DF90CF90089510929906C5
:1050600010929A0610929B0610929C068FEF9FEF6B
:10507000A0E0B0E080939D0690939E06A0939F06CB
:10508000B093A0060895FC01E458FF4F8081918100
:105090000E94DC28089508951F920F920FB60F9278
:1050A00011242F933F934F938F939F93EF93FF93ED
:1050B0004091C6002091E1063091E2062F5F3F4FFC
:1050C0002F7330708091E3069091E406281739071A
:1050D00059F0E091E106F091E206EF55F94F408377
:1050E0003093E2062093E106FF91EF919F918F911B
:1050F0004F913F912F910F900FBE0F901F901895D9
:10510000E0913507F0913607E05CFF4F8191919176
:1051100020813181821B930B8F739070892B11F04A
:105120000E944B2808951F920F920FB60F921124E0
:105130002F933F934F935F936F937F938F939F939F
:10514000AF93BF93EF93FF932091250730912607EC
:1051500080912707909128072817390731F480910B
:10516000C1008F7D8093C10016C0E0912707F091A8
:105170002807EB51F94F408180912707909128072C
:10518000019660E470E00E94C22E909328078093FD
:1051900027074093C600FF91EF91BF91AF919F9178
:1051A0008F917F916F915F914F913F912F910F90D0
:1051B0000FBE0F901F901895AF92BF92DF92EF92A3
:1051C000FF920F931F93CF93DF93EC017A018B0132
:1051D000DD24403081EE580780E0680780E07807E2
:1051E00011F0DD24D39491E0A92EB12CEC89FD8936
:1051F000DD2069F0C5010E8C02C0880F991F0A944A
:10520000E2F7808360E079E08DE390E005C01082F2
:1052100060E874E88EE190E0A80197010E94D52E25
:10522000215030404040504056954795379527953E
:1052300080E12030380720F0DD2011F0DD24D6CFCA
:10524000E889F9893083EA89FB892083EE89FF891F
:10525000408121E030E0C9010A8C02C0880F991F0B
:105260000A94E2F7482B4083EE89FF894081C90107
:105270000B8C02C0880F991F0A94E2F7482B4083D9
:10528000EE89FF894081C9010C8C02C0880F991FEB
:105290000A94E2F7482B4083EE89FF8980810D8CC8
:1052A00002C0220F331F0A94E2F72095282320839F
:1052B000DF91CF911F910F91FF90EF90DF90BF9002
:1052C000AF900895DC011C96ED91FC911D97E05C78
:1052D000FF4F2191319180819181281B390B2F73D0
:1052E0003070C9010895DC011C96ED91FC911D9769
:1052F000E05CFF4F20813181E054F040DF01AE5B84
:10530000BF4F8D919C9111972817390719F42FEFF2
:105310003FEF07C08D919C91E80FF91F8081282FE6
:1053200030E0C9010895DC011C96ED91FC911D97B8
:10533000E05CFF4F20813181E054F040DF01AE5B43
:10534000BF4F8D919C9111972817390719F42FEFB2
:105350003FEF10C08D919C911197E80FF91F2081AC
:105360008D919C91119701968F73907011969C93DB
:105370008E9330E0C9010895FC0186859785DC0194
:10538000A05CBF4FFC01EE5BFF4F2D913C9111974C
:105390008081918128173907C1F70895CF93DF9352
:1053A000EC01462FEE85FF85E05CFF4F8081918107
:1053B000E054F040019660E470E00E94C22E9C012F
:1053C000DF01AE5BBF4F8D919C9111972817390774
:1053D000D1F3E05CFF4F80819181E054F040E80F11
:1053E000F91F4083EE85FF85E05CFF4F318320830A
:1053F000EE89FF89208181E090E00D8C02C0880F4A
:10540000991F0A94E2F7282B208381E090E0DF9136
:10541000CF91089510922C0710922B0788EE93E0FD
:10542000A0E0B0E080932D0790932E07A0932F0764
:10543000B09330078CEC91E090932A078093290772
:1054400081EA96E0909336078093350785EE96E0E3
:10545000909338078093370785EC90E090933A0754
:105460008093390784EC90E090933C0780933B074E
:1054700080EC90E090933E0780933D0781EC90E0B4
:105480009093400780933F0786EC90E0909342070B
:105490008093410784E08093430783E0809344072F
:1054A00087E08093450785E08093460781E08093FD
:1054B00047070895CF92DF92EF92FF920F931F93C9
:1054C000CF93DF937C016B018A01C0E0D0E00FC075
:1054D000D6016D916D01D701ED91FC910190F081A4
:1054E000E02DC7010995C80FD91F015010400115C3
:1054F000110571F7CE01DF91CF911F910F91FF90B0
:10550000EF90DF90CF900895DC01ED91FC91019038
:10551000F081E02D09950895EF92FF920F931F936C
:105520008C01DC01ED91FC910190F081E02D6DE0AA
:1055300009957C01D801ED91FC910190F081E02D5D
:10554000C8016AE009959C012E0D3F1DC9011F91FC
:105550000F91FF90EF900895CF93DF93DB010D90B3
:105560000020E9F71197A61BB70BEC01E881F98140
:105570000280F381E02DAD010995DF91CF9108956F
:105580004F925F927F928F929F92AF92BF92CF92F3
:10559000DF92EF92FF920F931F93DF93CF93CDB7DC
:1055A000DEB7A1970FB6F894DEBF0FBECDBF2C01BA
:1055B000742ECB01223008F42AE019A231E2C32E66
:1055C000D12CCC0EDD1E822E9924AA24BB24672D5B
:1055D000752FA50194010E94D52E79018A01C80179
:1055E000B701A50194010E94A32E472D461B0894E4
:1055F000C108D1084A3014F4405D01C0495CF6018D
:105600004083E114F1040105110521F07E2C5F2D8A
:10561000C801DDCFC201B6010E94AC2AA1960FB627
:10562000F894DEBF0FBECDBFCF91DF911F910F91D8
:10563000FF90EF90DF90CF90BF90AF909F908F90B2
:105640007F905F904F900895CF92DF92EF92FF92FC
:105650000F931F93CF93DF93EC016A017B01211518
:10566000310541F4E881F9810190F081E02D642F4A
:1056700009951FC02A303105D1F477FF17C0E881A2
:10568000F9810190F081E02D6DE209958C014427AC
:105690005527BA014C195D096E097F09CE012AE030
:1056A0000E94C02A9801280F391F04C02AE00E94D6
:1056B000C02A9C01C901DF91CF911F910F91FF90EA
:1056C000EF90DF90CF900895EF92FF920F931F938A
:1056D0007B019A010027F7FC0095102FB801A70164
:1056E0000E94242B1F910F91FF90EF9008950E942C
:1056F000AC2A0895EF92FF920F931F937C010E94B2
:10570000AC2A8C01C7010E948C2A080F191FC801FE
:105710001F910F91FF90EF900895AF92BF92CF929B
:10572000DF92EF92FF920F931F93CF93DF935C0171
:105730006B01EE24FF24C0E0D0E010C0D501ED9154
:10574000FC9100811181C601BE010E94E52B682FEA
:10575000C501F8010995E80EF91E2196F60184812C
:105760009581C817D90750F3C701DF91CF911F91D9
:105770000F91FF90EF90DF90CF90BF90AF90089582
:10578000EF92FF920F931F937C010E948D2B8C014F
:10579000C7010E948C2A9C01200F311FC9011F9153
:1057A0000F91FF90EF900895FC0184819581681717
:1057B000790748F40190F081E02D309721F0E60F51
:1057C000F71F8081089580E00895FC018481958110
:1057D0006817790748F40190F081E02D309721F0A7
:1057E000E60FF71F8081089580E00895FC01808115
:1057F0009181009729F420E030E040E050E004C0BF
:105800000E94E4309B01AC01B901CA0108950F93D5
:105810001F93CF93DF93EC018B016F5F7F4F8881E4
:1058200099810E941630009711F480E005C0998399
:1058300088831B830A8381E0DF91CF911F910F91B1
:105840000895CF93DF93EC0188819981892B29F00A
:105850008A819B818617970760F4CE010E94072CEE
:10586000882341F08C819D81892B19F4E881F9818D
:10587000108281E0DF91CF910895CF93DF93EC0107
:1058800088819981009711F00E94BE2F1982188299
:105890001D821C821B821A82DF91CF910895EF92A4
:1058A000FF920F931F93CF93DF93EC017B018A014B
:1058B000BA010E94212C882321F4CE010E943D2CA4
:1058C00007C01D830C8388819981B7010E94213113
:1058D000CE01DF91CF911F910F91FF90EF9008952E
:1058E000CF93DF93EC01198218821B821A821D82EA
:1058F0001C821E826115710551F0DB010D900020A4
:10590000E9F71197A61BB70BAD010E944F2CDF9151
:10591000CF9108950F931F93182F092F61157105CB
:1059200059F0DB010D900020E9F71197A61BB70B8A
:10593000AD010E944F2C02C00E943D2C812F902F60
:105940001F910F910895FC01808191810E94BE2FCB
:105950000895CF93DF930E945D2D0E943013C0E81D
:10596000D8E20E94E4122097E1F30E948028F9CF48
:105970000E94112F08951F920F920FB60F921124BB
:105980002F933F938F939F93AF93BF9380914C0737
:1059900090914D07A0914E07B0914F07309150075D
:1059A0000196A11DB11D232F2D5F2D3720F02D57FE
:1059B0000196A11DB11D2093500780934C07909331
:1059C0004D07A0934E07B0934F07809148079091E1
:1059D0004907A0914A07B0914B070196A11DB11D3F
:1059E0008093480790934907A0934A07B0934B07C9
:1059F000BF91AF919F918F913F912F910F900FBECB
:105A00000F901F9018958FB7F89420914C07309104
:105A10004D0740914E0750914F078FBFB901CA0102
:105A200008959FB7F8942091480730914907409115
:105A30004A0750914B0786B5A89B06C08F3F21F0BF
:105A40002F5F3F4F4F4F5F4F9FBF542F432F322F3A
:105A50002227280F311D411D511D82E0220F331FC7
:105A6000441F551F8A95D1F7B901CA010895EF92D5
:105A7000FF920F931F93CF93DF937B018C010E94C2
:105A8000112DEB010EC00E94112D6C1B7D0B685E69
:105A90007340C8F30894E108F10801091109C851DD
:105AA000DC4FE114F1040105110569F7DF91CF9195
:105AB0001F910F91FF90EF900895789484B58260C4
:105AC00084BD84B5816084BD85B5826085BD85B5A2
:105AD000816085BDEEE6F0E0808181608083E1E851
