:100000000C94B5000C94DD000C94DD000C94A82336
:100010000C94CC230C94F0230C94DD000C94DD00A4
:100020000C94DD000C94DD000C94DD000C94DD00DC
:100030000C94DD000C94DD000C94DD000C94DD00CC
:100040000C94672C0C94DD000C94F8270C943F283A
:100050000C94DD000C94DD000C94DD000C94DD00AC
:100060000C94DD000C94DD007C3C3E5E2B3D3F2F6C
:100070005B5D3B2C2A225C0000C2010001001100E4
:1000800011000C0000E100000A00250025002100FD
:10009000009600001900390039003600127A00007D
:1000A0001F004600460044008070000022004D0002
:1000B0004D004A00004B00003600750075007200CC
:1000C000403800004A009C009C00990080250000F8
:1000D0007200EC00EC00E900C0120000E900DA0157
:1000E000DA01D70160090000D701B603B603B303F4
:1000F000B0040000B3036E076E076B072C0100000D
:10010000DC0EC11DC11DBE1D000000002400270023
:100110002A0000000000250028002B00000000003D
:100120002300260029000404040404040404020239
:100130000202020203030303030301020408102066
:100140004080010204081020010204081020000071
:100150000007000201000003040600000000000088
:1001600000002C12DA27B629251211241FBECFEF6A
:10017000D8E0DEBFCDBF11E0A0E0B1E0EAE5F2E6F5
:1001800002C005900D92A83DB107D9F717E0A8ED80
:10019000B1E001C01D92AB34B107E1F711E0C8E650
:1001A000D1E004C02297FE010E94B92EC236D107C9
:1001B000C9F70E94552C0C9420310C940000CF9369
:1001C000DF93FB01EC0188A599A5AAA5BBA58083B7
:1001D0009183A283B3838CA59DA5AEA5BFA5FA018B
:1001E00080839183A283B383DF91CF910895CF93CE
:1001F000DF93FB01EC0188A199A1AAA1BBA1808397
:100200009183A283B3838CA19DA1AEA1BFA1FA016A
:1002100080839183A283B383DF91CF910895FC0102
:10022000868D978D0895EF92FF920F931F93CF9332
:10023000DF93EC0181E6E82EF12CEC0EFD1ECE01E1
:100240008D519E4FB7010E94910C88831F8A1E8A90
:1002500009C0FE01E80FF91FE859FF4F108201960F
:100260009F8B8E8B8E899F898430910594F3888132
:10027000813011F080E025C0C70161E070E00E948C
:10028000802B8E0108591F4FF8018083C70162E05F
:1002900070E00E94802BC759DF4F8993C70163E04C
:1002A00070E00E94802B89931882CB56D040C70102
:1002B000B8010E94362CC7010E94A22B7F8F6E8F3F
:1002C00081E0DF91CF911F910F91FF90EF90089502
:1002D000EF92FF920F931F93CF93DF93EC0190E384
:1002E000E92EF12CEC0EFD1EC70166E071E00E94C4
:1002F000362CCE018D519E4FB7010E94090C8D8383
:10030000882341F48FE197E067E071E00E94262B9B
:1003100080E06DC0813009F069C08FE197E0B701DE
:100320000E946C2B1F8A1E8A09C0FE01E80FF91F6C
:10033000E459FF4F108201969F8B8E8B8E899F8987
:100340008730910594F31F8A1E8A0FC0C701B80138
:100350000E94802B0C0F1D1F04591F4FF801808332
:100360008E899F8901969F8B8E8B0E891F890630FF
:10037000110564F3CE58DF4F188226978881CC563A
:10038000D040843261F5C359DF4F8881CD56D040CB
:10039000873429F5C259DF4F8881CE56D040803549
:1003A000F1F4C159DF4F8881CF56D0408235B9F47E
:1003B000C059DF4F8881C057D0408D3481F4CF5869
:1003C000DF4F8881C157D040833449F48FE197E0F3
:1003D0006AE071E00E94262B81E0888307C08FE1EC
:1003E00097E06FE071E00E94262B18828881DF91F0
:1003F000CF911F910F91FF90EF9008959F92AF9230
:10040000BF92CF92DF92EF92FF920F931F93CF9301
:10041000DF93EC011F8219861D8E1C8E1B8A1A8A9F
:10042000198E188E1B8E1A8E1F8A1E8A09C0FE0115
:10043000E80FF91FE156FF4F108201969F8B8E8BBC
:100440008E899F898B32910594F3CE010E946801B9
:100450008E83882309F4F6C08130D1F58E01005DCA
:100460001F4FFF24F39431C08A899B896C8D7D8D49
:100470000297E1F4C8010E94802B863541F48FE198
:1004800097E064E171E00E94262B80E0DBC06C8D78
:100490007D8DC8010E94802B813491F48FE197E01B
:1004A00067E171E00E94262BFF820AC0C8010E940A
:1004B000802B8C3229F48A899B8901969B8B8A8BAD
:1004C0008C8D9D8D01969D8F8C8F8F81813061F6F3
:1004D0008F81813009F0B5C01B8A1A8A1F8A1E8A53
:1004E00040E3E42EF12CEC0EFD1E39ECC32ED12C92
:1004F000CC0EDD1E9924939427E0A22EB12C9DC032
:100500008A899B898130910501F56E897F89C701B0
:100510000E94802B6E897F89088D198D8C3209F09D
:1005200059C0C7010E94802B0C0F1D1F01561F4F81
:10053000F8018083888D998D0196998F888F8E8997
:100540009F8901969F8B8E8B3DC08330910551F51D
:100550006E897F89C7010E94802B8C3229F48A8D95
:100560009B8D01969B8F8A8F8A8D9B8D6E897F894B
:10057000088D198D049771F5C7010E94802B0C0F0F
:100580001D1F01561F4FF8018083888D998D01969C
:10059000998F888F8E899F8901969F8B8E8BBB8ABE
:1005A000AA8A4BC08930910549F56E897F89C701B8
:1005B0000E94802B6E897F898C3251F46F5F7F4F50
:1005C0007F8B6E8B8A899B8901969B8B8A8B35C02A
:1005D000088D198DC7010E94802B0C0F1D1F01561D
:1005E0001F4FF8018083888D998D0196998F888F90
:1005F0008E899F8901969F8B8E8B1FC00A9759F415
:10060000F60110828FE197E06AE171E00E94262BEB
:100610009986988212C06E897F89C7010E94802BBB
:100620006E897F898C3229F48A899B8901969B8BFC
:100630008A8B6F5F7F4F7F8B6E8B8985813009F04E
:100640005FCF8881DF91CF911F910F91FF90EF9045
:10065000DF90CF90BF90AF909F900895CF92DF92A0
:10066000EF92FF920F931F93DF93CF93CDB7DEB737
:10067000AA970FB6F894DEBF0FBECDBF8C010E94C3
:10068000FE01D80118968C93882329F48FE197E016
:1006900060E271E04BC0813009F060C0FE0131962C
:1006A0008AE2DF011D928A95E9F7D80157961C92DC
:1006B0001E925697AF010FC0FA01E20FF31FD80147
:1006C000A20FB31FA156BF4F8C9180832F5F3F4F66
:1006D000F801378B268BD80156962D913C91579770
:1006E0002A3231054CF357961C921E9256975CECB9
:1006F000E52EF12CE00EF11E6E010894C11CD11CF8
:1007000019C0EC0DFD1DC70160810E94940BF8011A
:100710008283813039F48483868997890196978B07
:10072000868B08C08FE197E065E271E00E94262B7E
:1007300080E016C0D8015696ED91FC915797EA32A9
:10074000F105FCF2C7010E94500BF8018283813051
:1007500011F4848303C0D80114961C92F80184819B
:10076000AA960FB6F894DEBF0FBECDBFCF91DF9132
:100770001F910F91FF90EF90DF90CF9008959F927F
:10078000AF92BF92CF92DF92EF92FF920F931F939F
:10079000CF93DF93EC011F8219861B8A1A8A1D8E64
:1007A0001C8E198E188E1B8E1A8E1F8A1E8A09C0E7
:1007B000FE01E80FF91FEA57FF4F108201969F8B49
:1007C0008E8B8E899F898931910594F3CE010E9489
:1007D00068018E83882309F4A7C08130D1F58E018A
:1007E000005D1F4FFF24F39431C08A899B896C8D73
:1007F0007D8D0297E1F4C8010E94802B863541F47B
:100800008FE197E064E171E00E94262B80E08CC0CC
:100810006C8D7D8DC8010E94802B813491F48FE115
:1008200097E067E171E00E94262BFF820AC0C801B1
:100830000E94802B8C3229F48A899B8901969B8B9C
:100840008A8B8C8D9D8D01969D8F8C8F8F818130B1
:1008500061F68F81813009F066C01B8A1A8A1F8A6F
:100860001E8AE0E3EE2EF12CEC0EFD1E7EE9C72E73
:10087000D12CCC0EDD1E9924939467E0A62EB12CCA
:100880004EC08A899B898330910551F5088D198D59
:100890006E897F89C7010E94802B0C0F1D1F0A578C
:1008A0001F4FF80180838A8D9B8D039711F4BB8ABB
:1008B000AA8A6E897F89C7010E94802B8C3229F415
:1008C0008A8D9B8D01969B8F8A8F888D998D01963D
:1008D000998F888F8E899F8901969F8B8E8B1FC0E1
:1008E000079759F4F60110828FE197E068E271E012
:1008F0000E94262B9986988212C06E897F89C70133
:100900000E94802B2E893F898C3229F48A899B8909
:1009100001969B8B8A8B2F5F3F4F3F8B2E8B898558
:10092000813009F0AECF8881DF91CF911F910F9177
:10093000FF90EF90DF90CF90BF90AF909F90089581
:10094000EF92FF920F931F93CF93DF93EC018C01F3
:100950000D5A1F4FC80166E071E00E94362CFAE57F
:10096000EF2EF12CEC0EFD1EC70166E071E00E9437
:10097000362C1C861D861F8A1E8A09C0FE01E80FC0
:10098000F91FED58FF4F108201969F8B8E8B8E8939
:100990009F898930910594F31F8A1E8A09C0FE0140
:1009A000E80FF91FE458FF4F108201969F8B8E8B42
:1009B0008E899F898A30910594F3CE010E94BF03EE
:1009C0008883813011F080E0C0C0DE01AD58BF4F98
:1009D000CA57DF4F8881C658D0408C93FE01EC582F
:1009E000FF4FC957DF4F8881C758D0408083FE0131
:1009F000EB58FF4FC857DF4F8881C858D0408083DD
:100A0000FE01EA58FF4FC757DF4F8881C958D040D1
:100A10008083FE01E958FF4FC557DF4F8881CB58CF
:100A2000D0408083FE01E858FF4FC457DF4F8881D4
:100A3000CC58D0408083FE01E758FF4FC357DF4FAB
:100A40008881CD58D0408083FE01E658FF4FC257C1
:100A5000DF4F8881808363971882CB57D040C801CD
:100A6000BD010E94362CC8010E94A22B68A779A75D
:100A70008AA79BA7DE01A458BF4FCE56DF4F8881BF
:100A8000C259D0408C93FE01E358FF4FCD56DF4F43
:100A90008881C359D0408083FE01E258FF4FCC5675
:100AA000DF4F8881C459D0408083FE01E158FF4F59
:100AB000CB56DF4F8881C559D0408083FE01E05876
:100AC000FF4FCA56DF4F8881C659D0408083FE0150
:100AD000EF57FF4FC856DF4F8881C859D0408083F9
:100AE000FE01EE57FF4FC756DF4F8881C959D040EE
:100AF0008083FE01ED57FF4FC656DF4F8881CA59EC
:100B0000D0408083FE01EC57FF4FC556DF4F8881F0
:100B1000808366971882C558D040C701BD010E94E6
:100B2000362CC7010E94A22B6CA77DA78EA79FA77A
:100B3000C057DF4F8881C059D0408C87C356DF4FE4
:100B40008881CD59D0408D8781E0DF91CF911F9171
:100B50000F91FF90EF900895EF92FF920F931F93E4
:100B6000CF93DF93EC018C010B5B1F4FC80166E054
:100B700071E00E94362CACE4EA2EF12CEC0EFD1E46
:100B8000C70166E071E00E94362C1A861B861F8A18
:100B90001E8A09C0FE01E80FF91FED58FF4F1082B1
:100BA00001969F8B8E8B8E899F898930910594F356
:100BB0001F8A1E8A09C0FE01E80FF91FE458FF4F83
:100BC000108201969F8B8E8B8E899F898A3091052A
:100BD00094F3CE010E94BF038883813011F080E03E
:100BE000C0C0DE01AD58BF4FCA57DF4F8881C6581D
:100BF000D0408C93FE01EC58FF4FC957DF4F8881DE
:100C0000C758D0408083FE01EB58FF4FC857DF4FD5
:100C10008881C858D0408083FE01EA58FF4FC757EB
:100C2000DF4F8881C958D0408083FE01E958FF4FCB
:100C3000C557DF4F8881CB58D0408083FE01E858EC
:100C4000FF4FC457DF4F8881CC58D0408083FE01CE
:100C5000E758FF4FC357DF4F8881CD58D04080837E
:100C6000FE01E658FF4FC257DF4F888180836397AC
:100C70001882CB57D040C801BD010E94362CC80154
:100C80000E94A22B68A379A38AA39BA3DE01A45888
:100C9000BF4FCE56DF4F8881C259D0408C93FE01A2
:100CA000E358FF4FCD56DF4F8881C359D040808332
:100CB000FE01E258FF4FCC56DF4F8881C459D04027
:100CC0008083FE01E158FF4FCB56DF4F8881C55925
:100CD000D0408083FE01E058FF4FCA56DF4F888125
:100CE000C659D0408083FE01EF57FF4FC856DF4FF3
:100CF0008881C859D0408083FE01EE57FF4FC75608
:100D0000DF4F8881C959D0408083FE01ED57FF4FE6
:100D1000C656DF4F8881CA59D0408083FE01EC5708
:100D2000FF4FC556DF4F8881808366971882C5586C
:100D3000D040C701BD010E94362CC7010E94A22BE2
:100D40006CA37DA38EA39FA3C057DF4F8881C0599A
:100D5000D0408A87C356DF4F8881CD59D0408B87DA
:100D600081E0DF91CF911F910F91FF90EF90089557
:100D7000EF92FF920F931F93DF93CF93CDB7DEB720
:100D800069970FB6F894DEBF0FBECDBF8C017E0110
:100D90000894E11CF11C89E1F70111928A95E9F7A9
:100DA0008AEA8983F801118E108EC8010E94BF0360
:100DB000F8018087882341F48FE197E060E271E0D9
:100DC0000E94262B80E044C0813009F03FC081E0C2
:100DD00090E0F801918F808FB8016A577F4F8FE1C3
:100DE00097E00E94262BF801178A168AB70117C0D0
:100DF000F801208D318D260F371FA00FB11FAA5784
:100E0000BF4F8C91F9018083F801808D918D0196FF
:100E1000918F808F868997890196978B868BF801B1
:100E2000A689B789A831B1051CF3C801875D9E4F1B
:100E300049E150E00E94EC10F8018183882311F40D
:100E4000108204C0813011F4F8018083F8018081A0
:100E500069960FB6F894DEBF0FBECDBFCF91DF917C
:100E60001F910F91FF90EF9008956F927F928F9254
:100E70009F92AF92BF92CF92DF92EF92FF920F9329
:100E80001F93DF93CF93CDB7DEB761970FB6F8947A
:100E9000DEBF0FBECDBF7C01FE0133968FE0DF01C8
:100EA0001D928A95E9F719821A82F701138A128A2C
:100EB00017861686118A108A27E3C22ED12CCE0CF3
:100EC000DF1CC60166E071E00E94362C9EE3892E8D
:100ED000912C8E0C9F1CC40166E071E00E94362CA0
:100EE00083EEA82E81E0B82EAE0CBF1CB701625F66
:100EF0007F4FC5010E94CC0D8FEF8B83D7011E96CB
:100F00009C911E971F968C918C839D83B701605F87
:100F10007F4FC5010E94C00D8EEF8E83F70190892F
:100F200081898F8398878DEF8987C501B6010E94DB
:100F3000300D87E090E0D70155969C938E9354979F
:100F400057961C921E92569700E010E03E010894BE
:100F5000611C711C24C0F70182899389029751F4A6
:100F6000C6010E94802BF301E00FF11F80830F5F09
:100F70001F4F0FC0C6010E94802B8C3251F4D70145
:100F800052968D919C915397019653969C938E9374
:100F90005297F701868997890196978B868BD7019F
:100FA00056966D917C915797DB968D919C91DC972D
:100FB00001978617970778F6DE011396F701848963
:100FC000958929810130110561F4FD01E80FF91FB0
:100FD00010820196F701958B848BA80FB91F2C9373
:100FE0000CC0FD01E80FF91F20830196F701958BD6
:100FF000848BA80FB91F8A818C93C501B4010E940C
:10100000910CD7018C93813009F08DC0C40160E050
:1010100070E00E94802B823009F08BC0C40164E034
:1010200070E00E94802B833009F083C08CEF8C87A6
:101030008FE197E06DE271E00E94262B8AE090E05C
:10104000F701958B848B178A168A02E4C02ED12C67
:10105000CE0CDF1C13E0A12EB12CAC0EBD1E1FC0A8
:10106000D70154960D911C915597C4010E94802B75
:101070000A0D1B1DF8018083D70154968D919C9118
:101080005597019655969C938E93549756968D91AD
:101090009C915797019657969C938E935697F7017C
:1010A00066897789D6018D919C910197861797075C
:1010B000B8F6178A168A870104531F4FB3E0CB2E68
:1010C000D12CCC0EDD1E1AC0EC0DFD1D6081C801B7
:1010D00070E00E94BD0BF7018283813039F4848374
:1010E000868997890196978B868B08C08FE197E058
:1010F00065E271E00E94262B80E020C0D701569661
:10110000ED91FC915797EF30F105F4F2C8010E9480
:10111000500BF7018283813011F484830CC0D70116
:1011200014961C9208C08FE197E061E371E00E9481
:10113000262BF7011482D70114968C9161960FB675
:10114000F894DEBF0FBECDBFCF91DF911F910F91FD
:10115000FF90EF90DF90CF90BF90AF909F908F90D7
:101160007F906F9008956F927F928F929F92AF922F
:10117000BF92CF92DF92EF92FF920F931F93DF9374
:10118000CF93CDB7DEB761970FB6F894DEBF0FBE31
:10119000CDBF7C01FE0133968FE0DF011D928A9561
:1011A000E9F719821A82F701138A128A17861686BE
:1011B000118A108A77E3C72ED12CCE0CDF1CC60112
:1011C00066E071E00E94362C6EE3862E912C8E0C28
:1011D0009F1CC40166E071E00E94362C53EEA52EE0
:1011E00051E0B52EAE0CBF1CB701625F7F4FC50149
:1011F0000E94CC0D8FEF8B83D7011F968C911F9788
:101200008C831E968C918D83B701605F7F4FC501E3
:101210000E94C00D8EEF8E83F701908981898F83A4
:1012200098878DEF8987C501B6010E94300D87E050
:1012300090E0D70155969C938E93549757961C92A5
:101240001E92569700E010E03E010894611C711C4C
:1012500024C0F70182899389029751F4C6010E9444
:10126000802BF301E00FF11F80830F5F1F4F0FC032
:10127000C6010E94802B8C3251F4D70152968D9179
:101280009C915397019653969C938E935297F70196
:10129000868997890196978B868BD70156966D9193
:1012A0007C915797DB968D919C91DC9701978617DF
:1012B000970778F6DE011396F701848995892981CD
:1012C0000130110561F4FD01E80FF91F108201964C
:1012D000F701958B848BA80FB91F2C930CC0FD01CF
:1012E000E80FF91F20830196F701958B848BA80FD7
:1012F000B91F8A818C938CEF8C87C501B4010E9441
:10130000910CD7018C93813009F071C0C40160E069
:1013100070E00E94802B823009F06FC0C40164E04D
:1013200070E00E94802B833009F067C08FE197E066
:101330006DE271E00E94262B8AE090E0F701958B28
:10134000848B178A168A42E4C42ED12CCE0CDF1C63
:1013500033E0A32EB12CAC0EBD1E1FC0D701549696
:101360000D911C915597C4010E94802B0A0D1B1DE5
:10137000F8018083D70154968D919C9155970196E1
:1013800055969C938E93549756968D919C91579712
:10139000019657969C938E935697F70166897789A5
:1013A000D6018D919C91019786179707B8F6C701D2
:1013B000875D9E4FB5014FE050E00E941C11082F41
:1013C000F7018183813051F48FE197E064E371E0AC
:1013D0000E94262BD70113960C9312C08FE197E041
:1013E00068E371E00E94262BF701138209C08FE1A8
:1013F00097E061E371E00E94262BD70113961C92BF
:10140000F701838161960FB6F894DEBF0FBECDBFA2
:10141000CF91DF911F910F91FF90EF90DF90CF90D0
:10142000BF90AF909F908F907F906F9008956115BF
:10143000710529F486539F4F0E94F20A0895633084
:10144000710529F486539F4F0E94EC0A0895643079
:10145000710529F486539F4F0E94150B0895613042
:10146000710529F486539F4F0E94280B089562301E
:10147000710529F486539F4F0E94230B0895653010
:10148000710521F486539F4F0E94F80A08950F9327
:101490001F938C0186539F4F0E942D0BC801875DBF
:1014A0009E4F0E944D110D511E4FC8010E94D80D34
:1014B000C8010E94F00B1F910F9108950F931F9385
:1014C0008C018D519E4F0E94270EC801875D9E4F53
:1014D0000E94EB10C80184539F4F0E94770BC801F4
:1014E00086539F4F0E94EB0AC8018F599F4F0E945D
:1014F0004F2CC801865A9F4F0E944F2CC8018D5A0D
:101500009F4F0E944F2CC801845B9F4F0E944F2C1D
:10151000C8018B5B9F4F0E944F2CC801CE960E9442
:101520004F2CC801C7960E944F2CC801C0960E943C
:101530004F2C1F910F910895EF92FF920F931F93DD
:101540008C01E6E0EE2EE1E0FE2EC096B7010E948F
:101550001C2CC801C796B7010E941C2CC801CE964E
:10156000B7010E941C2CC8018B5B9F4FB7010E94E2
:101570001C2CC801845B9F4FB7010E941C2CC80122
:101580008D5A9F4FB7010E941C2CC801865A9F4F4D
:10159000B7010E941C2CC8018F599F4FB7010E94B0
:1015A0001C2CC80186539F4F0E94EA0AC80184532D
:1015B0009F4F0E943A0BC801875D9E4F0E94EE111B
:1015C000C8018D519E4F0E942B0E1F910F91FF90CD
:1015D000EF9008950895089589E062ED70E00E940B
:1015E000692D089589E06FEF70E00E94692D0895DC
:1015F000CF93DF93EC01198218820EC089E00E941C
:10160000692D62E370E080E090E00E94E32C888125
:101610009981019699838883688179816F3F7105EB
:1016200069F364F3DF91CF91089580E160E00E9457
:101630001C2E81E160E00E941C2E89E060E070E0D9
:101640000E94692D089581E161E00E941C2E089599
:1016500080E161E00E941C2E089589E061E00E9413
:10166000C92D80E161E00E94C92D81E161E00E9405
:10167000C92D0895FC0189E181831482148E13A27F
:1016800016A2EE5BFF4F10823396108235971182BF
:101690001082E054F04088E991E097AF86AF08955A
:1016A0000F931F93CF93DF93EC0162E044E00E941D
:1016B000241E8823B1F08E010E5B1F4FC8016BE31F
:1016C00071E043E60E94FD1D882359F0CE01CE96BD
:1016D00067E471E00E94262BC8010E94E61681E0B3
:1016E00001C080E0DF91CF911F910F910895CF93BA
:1016F000DF93EC0188E991E09FAF8EAFCB5BDF4FCA
:101700008881C554D040882329F0CE018E5B9F4F3D
:101710000E94E6168EA1882321F0CE0183960E94B6
:10172000E616DF91CF910895FF920F931F93CF9309
:10173000DF93EC01F62E62E044E00E94241E882331
:10174000A9F08E010E5B1F4FC8016BE371E043E609
:101750000E94FD1D882351F0CE01CE966F2D0E9470
:10176000302AC8010E94E61681E001C080E0DF91C6
:10177000CF911F910F91FF900895EF92FF920F93D9
:101780001F93CF93DF938C017B0162E044E00E94C2
:10179000241E8823E9F0E801CE5BDF4FCE016BE326
:1017A00071E043E60E94FD1D882391F0025C1F4F0B
:1017B000C801B7014AE050E00E94102BC80168E45C
:1017C00071E00E94232BCE010E94E61681E001C049
:1017D00080E0DF91CF911F910F91FF90EF900895DE
:1017E0000F931F938C0168EE73E080E090E00E94FD
:1017F000E32CF80185A596A56AE471E00E94232BED
:1018000068EE73E080E090E00E94E32C1F910F915E
:101810000895DF92EF92FF920F931F93CF93DF9380
:10182000EC017B018DA59EA50E9419231A821B82C3
:101830001D861C861B861A86C70162E771E00E941E
:10184000362C1986188607C0FE01E80FF91F17A667
:101850000196998788878885998587349105A4F3AF
:10186000EDA5FEA5A081B1811A962D913C911B9703
:10187000CF01F90109958E01015D1F4FDD24D3943D
:1018800044C08A859B858053954711F480E041C010
:10189000EDA5FEA5A081B18114962D913C911597DF
:1018A000CF01F9010995ADA5BEA5892BF9F0ED9100
:1018B000FC9111970680F781E02DCD0109958B836E
:1018C000AC85BD858D3051F4AC0FBD1F9F961C9229
:1018D000C701B8010E94362CDA8217C0FE01EA0F58
:1018E000FB1F87A71196BD87AC870FC0ED91FC91B8
:1018F00011970480F581E02DCD010995892B29F4FC
:101900008A859B8501969B878A878A81813009F029
:10191000B8CFDF91CF911F910F91FF90EF90DF90A3
:1019200008959F92AF92BF92CF92DF92EF92FF9273
:101930000F931F93CF93DF93EC017B018BA59CA5A5
:101940000E9419231F821E821B861A861B82188AF8
:10195000198A1A8A1B8A1C8A1D8AEBA5FCA5A081FC
:10196000B1811A962D913C911B97CF01F9010995F0
:101970008E01005F1F4F95E0A92EB12C99249394FE
:1019800081E0C82ED12C5AC08A859B858858934106
:1019900011F480E059C0EBA5FCA5A081B18114969B
:1019A0002D913C911597CF01F9010995ABA5BCA5E7
:1019B000892B51F0ED91FC9111970680F781E02D74
:1019C000CD0109958B8310C0ED91FC911197048096
:1019D000F581E02DCD010995892B31F48A859B8510
:1019E00001969B878A872AC04B81423041F48E81C1
:1019F0009F81892B99F4488BDF82CE821FC04330B0
:101A000069F48E819F81049749F44C8BBF82AE822A
:101A1000C701B8010E94362C998210C02E813F81E7
:101A2000C9010197039750F4423041F0FE01E20FE3
:101A3000F31F408B2F5F3F4F3F832E838E819F810B
:101A400005970CF4A1CF8981DF91CF911F910F9160
:101A5000FF90EF90DF90CF90BF90AF909F90089550
:101A6000DF92EF92FF920F931F93CF93DF93EC01DE
:101A70007B011B821F861E86CB0162E771E00E94FC
:101A8000362C1882E9A5FAA5A081B1811A962D916C
:101A90003C911B97CF01F901099589A59AA563E7A8
:101AA00071E00E94232B68EE73E080E090E00E94DA
:101AB000E32C89A59AA50E9419231986188607C0C8
:101AC000FE01E80FF91F168A019699878887888595
:101AD00099858B309105A4F38E010A5E1F4FDD249A
:101AE000D39436C0ED91FC9111970480F581E02DDF
:101AF000CD010995892B61F1E9A5FAA5A081B181F4
:101B000016962D913C911797CF01F90109958B837A
:101B1000AE85BF858D30A9F4AC0FBD1F56961C92C3
:101B2000C701B8010E94362CD882E9A5FAA5A08188
:101B3000B1811A962D913C911B97CF01F90109951E
:101B400007C0FE01EA0FFB1F868B1196BF87AE8789
:101B50008881A9A5BAA5813029F6CD0166E771E093
:101B60000E94232B68EE73E080E090E00E94E32C5B
:101B7000DF91CF911F910F91FF90EF90DF9008952B
:101B80000F931F938B0181E00E94472DF8019183F1
:101B900080831F910F9108950F931F938B0180E015
:101BA0000E94472DF801918380831F910F91089522
:101BB000EF92FF920F931F937C0181E00E94442DCE
:101BC0008CE190E00E94642C182F092F62E043E022
:101BD00020E00E942D26F70115A706A7812F902F40
:101BE00040E855E260E070E00E9414248CE190E04F
:101BF0000E94642C182F092F62E143E120E00E942B
:101C00002D26F70111A702A7812F902F40E056E95A
:101C100060E070E00E9414248CE190E00E94642C4B
:101C2000182F092F66E047E020E00E942D26F701DB
:101C300013A704A7812F902F40E855E260E070E0E1
:101C40000E9414241F910F91FF90EF9008958296A7
:101C50000E944F2C0895829662E771E00E941C2C2E
:101C60000895FC01848195810895FF920F931F933D
:101C7000CF93DF93EC0118821F821E828C01045FD8
:101C80001F4FFF24F39416C02233310511F4F8825C
:101C900011C0C8010E9435078883813031F4C80122
:101CA0000E942E038883813029F08E819F810196C6
:101CB0009F838E8388812E813F81813029F7223353
:101CC000310539F48FE197E069E771E00E94262B36
:101CD0002FC08A859B8501969B878A878FE197E035
:101CE00069E771E00E94262B8A859B8581309105EA
:101CF00019F483E090E01EC08230910519F484E06D
:101D000090E018C08330910519F485E090E012C08E
:101D10008430910519F486E090E00CC0853091057F
:101D200019F487E090E006C0069731F41B861A8606
:101D300088E090E09D838C83DF91CF911F910F917C
:101D4000FF900895FF920F931F93CF93DF93EC01C1
:101D5000188219821F821E82198618868C01045FE0
:101D60001F4FFF24F39416C02233310511F4F8827B
:101D700011C0C8010E94B3088883813031F4C801C2
:101D80000E94B8068883813029F08E819F81019658
:101D90009F838E8388812E813F81813029F7223372
:101DA000310549F48FE197E06BE771E00E94262B43
:101DB00088E090E008C08FE197E06BE771E00E9457
:101DC000262B82E090E09D838C83DF91CF911F9141
:101DD0000F91FF900895FF920F931F93CF93DF937E
:101DE000EC0118821F821E828C01045F1F4FFF24AA
:101DF000F39410C02233310511F4F8820BC0C801EE
:101E00000E94AC058883813029F08E819F810196E4
:101E10009F838E8388812E813F81813059F72233C1
:101E2000310549F48FE197E06DE771E00E94262BC0
:101E300088E090E008C08FE197E06DE771E00E94D4
:101E4000262B81E090E09D838C83DF91CF911F91C1
:101E50000F91FF900895CF92DF92EF92FF920F9330
:101E60001F937A012CE0C22ED12CC80ED91EC601B8
:101E70000E94170AC60163E070E00E94170A00275B
:101E8000F7FC0095102FC801B7010E94E32CC60192
:101E900064E070E00E94170A1F910F91FF90EF908D
:101EA000DF90CF900895CF92DF92EF92FF920F9341
:101EB0001F937B013CE0C32ED12CC80ED91EC60156
:101EC00060E070E00E94170A0027F7FC0095102FD1
:101ED000C801B7010E94E32CC60164E070E00E94D3
:101EE000170A1F910F91FF90EF90DF90CF90089508
:101EF0002F923F924F925F926F927F928F929F921A
:101F0000AF92BF92CF92DF92EF92FF920F931F9307
:101F1000DF93CF93CDB7DEB762970FB6F894DEBFED
:101F20000FBECDBF3C01FE2C160125019A8A898A7D
:101F3000FC01108268EB7BE080E090E00E94E32CE3
:101F40008301045F1F4F05C0C8010E94A004F30174
:101F50008083F30180818130B9F7C8010E941301A9
:101F60008130D9F7C8010E940F014C01C801BE01A0
:101F70006F5F7F4FAE014B5F5F4F0E94DF00C80174
:101F8000BE01675F7F4FAE01435F5F4F0E94F70066
:101F9000AD84BE84CF84D888F1E0FF1629F4E984AB
:101FA000FA840B851C8502C086017501F3018281CC
:101FB000813009F441C02D813E814F815885C50192
:101FC000821B930B97FF03C0909581959F4F698962
:101FD0007A898617970724F481E0F301828379C018
:101FE000A216B306C406D5068CF4C4018A5A9040E2
:101FF000459708F45BC0F5EB8F1691040CF063C0B5
:1020000024EB8216910409F464C042C02A153B05F2
:102010004C055D050CF05DC0C4010B9783559140E4
:1020200008F044C075EB8716910494F584EB88168C
:10203000910409F44EC047C0F3018381813009F453
:1020400048C029813A814B815C81C701821B930B77
:1020500097FF03C0909581959F4F69897A8986176C
:10206000970724F481E0F301838333C0E216F3067B
:10207000040715078CF4C401845091404597B0F0D3
:1020800065EA7FEF860E971E73EB8716910408F5BD
:10209000C30162E070E01AC02E153F0540075107EA
:1020A000C4F4C40180559040459728F4C301B101A0
:1020B0000E94530F0EC085EA9FEF880E991E93EB86
:1020C0008916910430F4C30161E070E0A2010E941E
:1020D0002B0FF3018381813059F4128213828FE137
:1020E00097E06FE771E00E94262B81E090E049C005
:1020F000F301828593858130910549F48FE197E062
:1021000061E871E00E94262B83E090E03AC08230C3
:10211000910549F48FE197E063E871E00E94262B76
:1021200084E090E02EC08330910549F48FE197E080
:1021300065E871E00E94262B85E090E022C08430A3
:10214000910549F48FE197E067E871E00E94262B42
:1021500086E090E016C08530910549F48FE197E064
:1021600069E871E00E94262B87E090E00AC0892B85
:1021700059F48FE197E06BE871E00E94262B88E02C
:1021800090E0F3019583848362960FB6F894DEBFE6
:102190000FBECDBFCF91DF911F910F91FF90EF90B8
:1021A000DF90CF90BF90AF909F908F907F906F9077
:1021B0005F904F903F902F9008950F931F938C0145
:1021C0000C960E94470AF801158214821386128623
:1021D0001F910F9108950895EF92FF920F931F930F
:1021E000DF93CF93CDB7DEB760970FB6F894DEBF1D
:1021F0000FBECDBF8C01FB01242F01581F4F7E0164
:102200000894E11CF11CC701B801AF010E94D1265E
:10221000C8018E579040B7010E946A2781E06096FE
:102220000FB6F894DEBF0FBECDBFCF91DF911F91E7
:102230000F91FF90EF900895EF92FF920F931F93ED
:10224000DF93CF93CDB7DEB760970FB6F894DEBFBC
:102250000FBECDBF8C01FB01242FBC0161587F4F05
:102260007E010894E11CF11CC701AF010E94D12638
:10227000C8010196B7010E946A2781E0F8018083B6
:1022800060960FB6F894DEBF0FBECDBFCF91DF9141
:102290001F910F91FF90EF900895CF92DF92EF92F0
:1022A000FF920F931F93DF93CF93CDB7DEB7C95B38
:1022B000D0400FB6F894DEBF0FBECDBF6C018E01CB
:1022C000045C1F4FC8010E94A226D6011196F80196
:1022D0008EE701900D928150E1F77E010894E11C98
:1022E000F11CC70140E052EA63E170E00CEC12E13E
:1022F00020E730E40E94C326D601A158BF4FF70162
:1023000088E001900D928150E1F78E010E5E1F4F23
:10231000C8010E948226D601A957BF4FF8018AE062
:1023200001900D928150E1F7C601019640E855E217
:1023300060E070E00E94EF278E01075F1F4FC80129
:102340000E945B26D601AF56BF4FF80189E001908D
:102350000D928150E1F7CE014C960E947C26D60169
:10236000A456BF4FFE017E9689E001900D928150E8
:10237000E1F785EA90E0C80ED91E8FA198A5F60175
:10238000918380838BE59FEFC80ED91ECE0189967D
:102390000E945C26D601A755BF4FFE01BB9689E07F
:1023A00001900D928150E1F7D601AE54BF4FFE016E
:1023B000F49688E001900D928150E1F7C754DF4F09
:1023C0000FB6F894DEBF0FBECDBFCF91DF911F9146
:1023D0000F91FF90EF90DF90CF9008950F931F9390
:1023E0008C0101960E94A226C80181589F4F0E942D
:1023F000C226C80189579F4F0E948226C8018F5666
:102400009F4F0E945B26C80186569F4F0E947C26E4
:10241000C80189559F4F0E945C261F910F91089516
:102420008130910541F46F5F7F4F71F484EE91E04C
:102430000E949C0A0895892B39F46F5F7F4F21F425
:1024400084EE91E00E945E0A089580E090E06FEFD4
:102450007FEF0E941012089581E090E06FEF7FEF10
:102460000E94101208958F929F92AF92BF92CF92C6
:10247000DF92EF920F931F9388ED91E00E94310E4F
:10248000892B29F488ED91E00E94EB0E8BC088ED3A
:1024900091E00E94310E019729F488ED91E00E94AD
:1024A000A20E80C088ED91E00E94310E029729F4BF
:1024B00088ED91E00E94350E75C088ED91E00E9494
:1024C000310E039759F488ED91E04EE559E36EED36
:1024D00070E003E115E326E337E043C088ED91E0C7
:1024E0000E94310E049759F488ED91E040E15AE3DF
:1024F0006EED70E00DEA14E326E337E032C088EDBC
:1025000091E00E94310E059759F488ED91E045EE77
:1025100059E36EED70E001E414E326E337E021C0F7
:1025200088ED91E00E94310E069759F488ED91E014
:102530004EE359E36EED70E00BE914E326E337E078
:1025400010C088ED91E00E94310E079761F488ED8C
:1025500091E04DEB58E36EED70E002EE14E326E3FC
:1025600037E0EE2412C088ED91E00E94310E08970A
:10257000C9F488ED91E040E050E060E070E000E0F8
:1025800010E020E030E0EE24E394A0EDCA2EA7E0B6
:10259000DA2EF8EEAF2EF3E0BF2EE8EC8E2E912C63
:1025A0000E94780F1F910F91EF90DF90CF90BF9016
:1025B000AF909F908F90089588ED91E00E94DD107C
:1025C0000895FF920F931F93CF93DF938B010E9487
:1025D000AF2CEB01FF24FA9409C00E94AF2C6C1BB6
:1025E0007D0B6017710710F080E008C0FEBC0DB4D1
:1025F00007FEFDCF8EB58F3F81F781E0DF91CF9150
:102600001F910F91FF900895FC014281242F30E02B
:10261000C9019595879580658CBD40FF02C080E01B
:1026200004C080E0463009F081E08DBD808160E02B
:102630000E941C2E0895DF92EF92FF920F931F933A
:10264000CF93DF93EC01D62E79018A010E94041307
:10265000CE016CE271E00E94E1128D2D80648EBD8E
:102660000DB407FEFDCF28E130E0D801C701022EEE
:1026700004C0B695A795979587950A94D2F78EBD15
:102680000DB407FEFDCF285030408FEF283F3807AC
:1026900061F7DD2011F485E906C088E0D81611F451
:1026A00087E801C08FEF8EBD0DB407FEFDCF8CE033
:1026B000D81631F48FEF8EBD0DB407FEFDCF8EB569
:1026C0009FEF2FEF2EBD0DB407FEFDCF8EB587FF18
:1026D00004C0992311F09150F5CF8B83DF91CF91F6
:1026E0001F910F91FF90EF90DF900895FC01808182
:1026F00061E00E941C2E8FEF8EBD0DB407FEFDCF52
:102700000895DC016EBDFA0120E030E00DB407FE53
:10271000FDCF80818EBD0DB407FEFDCF81818EBDC2
:102720002E5F3F4F329682E02030380779F70DB4A4
:1027300007FEFDCF8FEF8EBD0DB407FEFDCF8FEFEF
:102740008EBD0DB407FEFDCF8FEF8EBD0DB407FE1D
:10275000FDCF8EB513968C9313978F71853011F43E
:1027600081E0089583E111968C931197CD010E9429
:10277000761380E00895CF92DF92EF92FF920F934D
:102780001F93CF93DF93EC017A018B0169018C8158
:10279000833039F059E0EE0CFF1C001F111F5A95D1
:1027A000D1F7CE0168E1A80197010E941B1388238D
:1027B00011F086E023C0CE016EEFA6010E948113C6
:1027C0008823E9F0CE0168E572E00E94E1128823D7
:1027D00011F487E113C0CE016DE020E030E040E06D
:1027E00050E00E941B13882341F48FEF8EBD0DB47F
:1027F00007FEFDCF8EB5882379F086E18983CE016F
:102800000E94761380E0DF91CF911F910F91FF908E
:10281000EF90DF90CF900895CE010E94761381E073
:10282000F2CFBF92CF92DF92EF92FF920F931F935E
:10283000CF93DF93EC016B017A010E94AF2C8B01E7
:10284000BB24BA9409C00E94AF2C601B710B6D525F
:10285000714010F081E10BC0BEBC0DB407FEFDCF8E
:102860008EB58B838F3F79F38E3F39F08FE089836C
:10287000CE010E94761380E02FC0D7011197EF2878
:10288000D9F08FEF8EBD20E030E09FEF0BC00DB48C
:1028900007FEFDCF8EB5F601E20FF31F80839EBDCC
:1028A0002F5F3F4F2A173B0790F30DB407FEFDCF74
:1028B0008EB5AC0DBD1D8C938FEF8EBD0DB407FE94
:1028C000FDCF8EB58FEF8EBD0DB407FEFDCF8EB55B
:1028D000CE010E94761381E0DF91CF911F910F917D
:1028E000FF90EF90DF90CF90BF900895CF92DF924E
:1028F000EF92FF920F931F93CF93DF93EC017A0136
:102900008B0169018C81833039F0A9E0EE0CFF1C4A
:10291000001F111FAA95D1F7CE0161E1A80197010F
:102920000E941B13882339F084E08983CE010E9422
:10293000761380E006C0CE01B60140E052E00E946E
:102940001114DF91CF911F910F91FF90EF90DF90C5
:10295000CF900895BF92CF92DF92EF92FF920F93A4
:102960001F93CF93DF93EC01B62E1C82198248830C
:102970000E94AF2C6B01888161E00E94C92D888183
:1029800061E00E941C2E8CE060E00E94C92D8BE06B
:1029900061E00E94C92D8DE061E00E94C92D8AE0AE
:1029A00061E00E94C92D8AE061E00E941C2E85E052
:1029B0008A8382E58CBD1DBC80E09FEF9EBD0DB477
:1029C00007FEFDCF8F5F8A30C9F709C00E94AF2C88
:1029D0006C197D09615D774010F081E05EC0CE0129
:1029E00060E020E030E040E050E00E941B13182F30
:1029F0008B83813059F7CE0168E02AEA31E040E06C
:102A000050E00E941B1382FF02C01C8311C080E0B3
:102A10002FEF2EBD0DB407FEFDCF9EB58F5F843026
:102A2000C1F79B839A3A11F082E037C082E08C8331
:102A30008C81823021F0EE24FF2487010FC0E12C2D
:102A4000F12C012D80E4182F09C00E94AF2C6C19C5
:102A50007D09615D774010F08AE01FC0CE0167E319
:102A600020E030E040E050E00E941B13CE0169E21C
:102A7000A80197010E941B138B83882331F78C8157
:102A8000823029F5CE016AE320E030E040E050E0FA
:102A90000E941B13882331F088E08983CE010E94B5
:102AA000761321C08FEF8EBD0DB407FEFDCF8EB51E
:102AB000807C803C11F483E08C8380E09FEF9EBD9E
:102AC0000DB407FEFDCF2EB58F5F8330C1F7CE0169
:102AD0000E94761386E08B1518F488E1898303C081
:102AE000BA8281E001C080E0DF91CF911F910F9108
:102AF000FF90EF90DF90CF90BF9008950F931F93BA
:102B0000CF93DF93DC01EB018A0180E090E020E2CB
:102B1000FE01E80FF91F208301968B309105C1F764
:102B200057E040E024C0622F2E3219F088E690E092
:102B300007C05A3051F15AE048E018C0321729F165
:102B4000FC01019634913323C9F75417F0F0213278
:102B5000E0F02F37D0F4822F81568A3110F4622FA3
:102B60006052FE01E40FF11D60834F5F11962C91BE
:102B7000222311F02F32B9F6F801B183A08390E03F
:102B80008881803219F091E001C090E0892FDF91B7
:102B9000CF911F910F9108956F927F928F929F9284
:102BA000AF92BF92CF92DF92EF92FF920F931F935B
:102BB000CF93DF93EC017A018B012B81222309F45F
:102BC00080C089899A89AB89BC8984179507A60733
:102BD000B70708F476C085C0E114F10401051105BA
:102BE00051F41C821D821E821F82188619861A8645
:102BF0001B8681E067C0288539854A855B85E98D1C
:102C0000FA8D858590E00996215030404040504033
:102C100039014A01082E04C09694879477946794EA
:102C20000A94D2F72F5F3F4F4F4F5F4F0894E10850
:102C3000F108010911095701680104C0D694C7942D
:102C4000B794A7948A95D2F70894E11CF11C011D52
:102C5000111DA614B704C804D90428F021153105A4
:102C60004105510549F48D899E89AF89B88D8C83C2
:102C70009D83AE83BF8316C0A618B708C808D908BD
:102C800011C04C815D816E817F81898D9A8D940107
:102C90000E94CA200894A108B108C108D10888235D
:102CA00031F40FC084E0882E912C8C0E9D1EA1144F
:102CB000B104C104D10429F7E886F9860A871B8785
:102CC00098CF80E0DF91CF911F910F91FF90EF900F
:102CD000DF90CF90BF90AF909F908F907F906F903C
:102CE0000895223009F078CFE7CFCF93DF93EC013E
:102CF0008C859D85AE85BF8540E0611141E0BC01BA
:102D0000CD010E94A01E882319F420E030E00AC003
:102D10008889282F30E095E0220F331F9A95E1F73C
:102D20002C5B3B4FC901DF91CF9108950F931F9307
:102D3000CF93DF938C01FC0183818823F1F18181A2
:102D400087FF38C0C80161E00E947516EC0100974A
:102D5000A1F18881853E89F1F8018381823040F4B8
:102D600081899289A389B4898C8F9D8FAE8FBF8F03
:102D7000F801858996899B8F8A8F85899689A7898D
:102D8000B08DCD01AA27BB279D8B8C8BE0913E0493
:102D9000F0913F04309751F0BE016A5E7F4FCE0143
:102DA00048960995888D998D9B8B8A8BF801818136
:102DB0008F7781830E94651E04C081E0F8018083C3
:102DC00080E0DF91CF911F910F9108950F931F9392
:102DD0008C010E949616F80113821F910F9108959D
:102DE000FC018381882319F0CF010E94E616089523
:102DF0006F927F928F929F92AF92BF92CF92DF920B
:102E0000EF92FF920F931F93DF93CF9300D000D0E8
:102E1000CDB7DEB77C015A016B01DC0113968C91B2
:102E20001397813009F091C011968C9181FF8DC06C
:102E3000A0C00097A105B10511F481E087C0F7019A
:102E40006084718482849384C701B601A5010E94C5
:102E5000CC15882309F479C0D70159968D919C919E
:102E60005A97A114B104C104D10489F455964D9127
:102E70005D916D917C9158970E944021882309F4BF
:102E800064C0F701158A168A178A108E44C0D701CC
:102E900014964D915D916D917C9117979E012F5FD6
:102EA0003F4F0E94CA20882309F44FC0D70159968A
:102EB000ED91FC915A9749815A816B817C81878978
:102EC000803149F4483FBFEF5B07B0E06B07B0E0EB
:102ED0007B0748F020C0483F8FEF58078FEF680707
:102EE0008FE07807C0F4CF010E944021882369F168
:102EF000D70114964D915D916D917C9117975996DC
:102F00008D919C915A970FEF1FEF2FEF3FE00E949A
:102F100043208823D1F0F701A18AB28AC38AD48AD8
:102F2000818180688183C7010E949616882369F099
:102F3000B601A5016A147B048C049D0410F4B4014D
:102F4000A301C7010E94CC1501C080E00F900F9033
:102F50000F900F90CF91DF911F910F91FF90EF9005
:102F6000DF90CF90BF90AF909F908F907F906F90A9
:102F70000895F70181899289A389B48984179507F7
:102F8000A607B70708F055CFE0CF2F923F924F9298
:102F90005F926F927F928F929F92AF92BF92CF92E9
:102FA000DF92EF92FF920F931F93CF93DF93EC0189
:102FB0002A018B81882309F4B6C0898180FFB3C0C0
:102FC000C8C025014E185F083B0174E0272E312C44
:102FD0002C0E3D1E4201A1C0288539854A855B859E
:102FE0006FEFA62E61E0B62EA222B3228B8179016B
:102FF0008A0199E016950795F794E7949A95D1F789
:10300000E98DFA8D823049F4428D538D648D758D32
:103010004E0D5F1D601F711F3FC0D480DA94DE200B
:10302000A114B104D9F4DD20C9F4211531054105FD
:10303000510549F48D899E89AF89B88D8C839D8314
:10304000AE83BF830BC04C815D816E817F81CF01D8
:1030500091010E94CA20882309F465C0E98DFA8D88
:103060004C815D816E817F81425050406040704054
:10307000058404C0440F551F661F771F0A94D2F7BA
:1030800086859785A089B189480F591F6A1F7B1FC4
:103090004D0D511D611D711D80E092E08A199B0943
:1030A00084018815990508F48C0182E00030180726
:1030B00009F067C08091400490914104A0914204BE
:1030C000B0914304481759076A077B0709F459C0B0
:1030D000809144069091450693010E9476148823BE
:1030E00049F421C095012C5B3B4FC301B901A801F4
:1030F0000E94C430600E711E980140E050E0888547
:103100009985AA85BB85820F931FA41FB51F888749
:103110009987AA87BB87801A910A8114910409F0C4
:103120005BCFA20102C04FEF5FEFCA01DF91CF91E9
:103130001F910F91FF90EF90DF90CF90BF90AF90D5
:103140009F908F907F906F905F904F903F902F90C7
:103150000895A988BA88CB88DC88E884F9840A8530
:103160001B859A0140E050E0D601C5018E199F09E8
:10317000A00BB10B281739074A075B0708F021CFCE
:1031800023CFCB01BA0140E00E94A01E882309F0A2
:10319000A9CFC9CFDF93CF930F92CDB7DEB7BE01D2
:1031A0006F5F7F4F41E050E00E94C517019719F013
:1031B0002FEF3FEF03C08981282F30E0C9010F9026
:1031C000CF91DF910895EF92FF920F931F93CF93CA
:1031D000DF93EC018B81823038F1E884F9840A8531
:1031E0001B85CE010E94CA1897FD1EC0888599854F
:1031F000AA85BB854F96A11DB11D88879987AA878F
:10320000BB87F5E016950795F794E794FA95D1F703
:103210002E2D30E02F703070E5E0220F331FEA953D
:10322000E1F72C5B3B4F02C020E030E0C901DF91A9
:10323000CF911F910F91FF90EF9008950F931F93DF
:10324000CF93DF93EC018B018B81882309F040C081
:10325000FB018789803109F041C082E08B831D8AA0
:103260001E8A1F8A188E808D918DA0E0B0E025E027
:10327000880F991FAA1FBB1F2A95D1F7898B9A8B9C
:10328000AB8BBC8B13C083E08B83F801428D538DD5
:10329000648D758D4D8B5E8B6F8B788F9E012F5E4D
:1032A0003F4FC8010E949E21882391F01A8F098FF9
:1032B00081E089831C821D821E821F8218861986E6
:1032C0001A861B861C861D861E861F86188A01C0CC
:1032D00080E0DF91CF911F910F9108958032C1F767
:1032E000D2CF1F93CF93DF93EC01142F262F30E022
:1032F000F90155E0EE0FFF1F5A95E1F7EC5BFB4F2C
:103300008385817121F0842F827109F069C08091D9
:10331000400490914104A0914204B09143048C87F1
:103320009D87AE87BF87688BF90145E0EE0FFF1FD1
:103330004A95E1F7EC5BFB4F84899589A0E0B0E00A
:10334000DC01992788278D8B9E8BAF8BB88F228DC0
:10335000338DA90160E070E0482B592B6A2B7B2B41
:103360004D8B5E8B6F8B788F838590E0887190702A
:10337000009751F4848D958DA68DB78D898B9A8B8E
:10338000AB8BBC8B81E00CC0409751F59E012F5E4A
:103390003F4F898D9A8D0E949E21882309F184E0F8
:1033A0008B83812F8F7089831C821D821E821F82D6
:1033B000188619861A861B8614FF18C0CE0140E0B5
:1033C00050E060E070E00E94F816882379F40AC0AB
:1033D00049895A896B897C89CE010E94CC1502C02B
:1033E0001B8280E0DF91CF911F91089515FDF0CFF2
:1033F00081E0F8CFCF93DF93EC019C012C5F3F4F2E
:10340000898D9A8D41E050E060E070E00E940A22D0
:103410008823A1F08D899E89AF89B88D0097A10579
:10342000B10559F48C819D81AE81BF818D8B9E8BBE
:10343000AF8BB88F89818068898381E0DF91CF91DC
:1034400008952F923F924F925F927F928F929F9218
:10345000AF92BF92CF92DF92EF92FF920F931F93A2
:10346000DF93CF9300D000D000D0CDB7DEB76C0192
:10347000162F072F5E834D83DC0113968C911397D3
:10348000813009F06FC111968C9181FF6BC188C1A9
:10349000F601418952896389748980859185A28565
:1034A000B38584179507A607B70731F0C6010E94B8
:1034B000CC15882309F456C1812F902F9C01190146
:1034C0004D805E8013C1D6015996ED91FC915A97BB
:1034D000DA01C90149E0B695A795979587954A9570
:1034E000D1F774807A9478228FEF882E81E0982E1D
:1034F00082229322772009F053C08114910409F0AD
:103500004FC0D60114964D915D916D917C911797A6
:10351000411551056105710581F455968D919D9177
:103520000D90BC91A02D0097A105B10561F1F601A8
:1035300084839583A683B78333C0CF019E012F5F19
:103540003F4F0E94CA20882309F40CC129813A8187
:103550004B815C81D6015996ED91FC915A978789F0
:10356000803149F4283FBFEF3B07B0E04B07B0E0A4
:103570005B0778F008C0283FEFEF3E07EFEF4E07FC
:10358000EFE05E0730F0C6010E94FA19882341F48B
:10359000E9C0D60114962D933D934D935C931797F4
:1035A00080E092E08819990952018415950508F484
:1035B0005C01D6015996ED91FC915A971496ED90C5
:1035C000FD900D911C9117978EEF9FEFAFEFBFEF1E
:1035D000E80EF91E0A1F1B1F058404C0EE0CFF1C19
:1035E000001F111F0A94D2F786859785A089B1899B
:1035F000E80EF91E0A1F1B1FE70CF11C011D111D0F
:1036000090E0A91692E0B90639F5809140049091B6
:103610004104A0914204B09143048E159F05A00778
:10362000B10771F4109246068FEF9FEFAFEFBFEF37
:103630008093400490934104A0934204B0934304C8
:103640008091440690914506B801A70191010E941E
:10365000BB138823B9F586C08114910419F5D601EE
:1036600018962D913D914D915C911B9751968D919E
:103670009D910D90BC91A02D281739074A075B0733
:1036800088F00E94651E882309F46CC081E0809355
:103690004606E0924004F0924104009342041093E5
:1036A000430408C0C801B70141E00E94A01E88235E
:1036B00009F458C094012C5B3B4FC901B101A5012D
:1036C0000E94C430950140E050E0F601808591856C
:1036D000A285B385820F931FA41FB51F8087918792
:1036E000A287B3872A0C3B1C4A185B08D6011896A0
:1036F0002D913D914D915C911B974114510409F01E
:10370000E2CE51968D919D910D90BC91A02D821786
:103710009307A407B50748F4F601218B328B438B3E
:10372000548B81818068818311C080913E04909187
:103730003F04892B59F08D819E81892B39F0D60168
:1037400011968C911197806811968C93F601818166
:1037500083FF05C0C6010E949616882319F04D818B
:103760005E8105C081E0D6018C934FEF5FEFCA0107
:1037700026960FB6F894DEBF0FBECDBFCF91DF9176
:103780001F910F91FF90EF90DF90CF90BF90AF907F
:103790009F908F907F905F904F903F902F900895D3
:1037A00082FD76CE89CEDF92EF92FF920F931F9328
:1037B000CF93DF93EC0189899A89AB89BC89805EBC
:1037C0009F4FAF41B04008F071C0CE010E94FA197E
:1037D000882309F46BC00E94651E882309F466C023
:1037E000E98DFA8DEC80FD800E811F818EEF9FEFB9
:1037F000AFEFBFEFE80EF91E0A1F1B1F058404C0C0
:10380000EE0CFF1C001F111F0A94D2F786859785C6
:10381000A089B189E80EF91E0A1F1B1F81E0809361
:103820004606E0924004F092410400934204109353
:10383000430480E092E0E4E4F4E0DF019C011D92A7
:1038400021503040E1F7DD24D39411C0B801A70125
:103850004D0D511D611D711D8091440690914506CD
:1038600024E434E00E94BB13882301F1D394E98D52
:10387000FA8D8481D81650F320E032E040E050E029
:10388000058404C0220F331F441F551F0A94D2F72A
:1038900089899A89AB89BC89820F931FA41FB51FA0
:1038A000898B9A8BAB8BBC8B81E001C080E0DF9170
:1038B000CF911F910F91FF90EF90DF9008958F921D
:1038C0009F92AF92BF92CF92DF92EF92FF920F93AF
:1038D0001F93CF93DF936C01EB01942E852EA22EC4
:1038E000898D9A8DD6015A969C938E935997CB01C8
:1038F00040E050E060E070E00E94CC15BB2438C08E
:10390000CE010E94E318FC01009709F493C055E032
:1039100016950795F794E7945A95D1F71E2D1F70C9
:103920008081882311F0853EC9F4BB2099F4209151
:103930004004309141044091420450914304D60127
:103940001C962D933D934D935C931F9750961C931B
:10395000BB24B3948081882359F418C0892D982DF5
:10396000BF014BE050E00E94B730009709F470C0EF
:10397000E884F9840A851B8589899A89AB89BC8981
:10398000E816F9060A071B0708F4BACFA6FE52C0CC
:10399000A1FE50C0BB2051F0F6011089C60161E0C4
:1039A0000E947516EC01009769F444C08B81823047
:1039B00009F440C0CE010E94D31B8823D9F110E046
:1039C000C4E4D4E080E2DE011D928A95E9F7DE01CD
:1039D000292D382DC901FC018BE001900D928150F9
:1039E000E1F7E0913E04F0913F04309739F0BE01D9
:1039F000625F7F4FCE014096099508C081E298E250
:103A0000998B888B80E098E09F878E878889998939
:103A10009B8B8A8B998F888F8E859F859F8B8E8BB2
:103A20000E94651E882331F0C601612F4A2D0E9435
:103A3000711901C080E0DF91CF911F910F91FF902C
:103A4000EF90DF90CF90BF90AF909F908F900895B0
:103A5000A7FEEACFEFCF2F923F924F925F926F92E5
:103A60007F928F929F92AF92BF92CF92DF92EF920E
:103A7000FF920F931F93DF93CF93CDB7DEB7C6545A
:103A8000D0400FB6F894DEBF0FBECDBF3C016B0136
:103A9000DE01AE5BBF4F11965C934E9325962FAF20
:103AA00025971C861F861FA21AA66115710509F4A9
:103AB00080C0FC018381882309F07BC0FA018081EA
:103AC0008F32F1F08601ECE0EE2EF12CEC0EFD1EB3
:103AD00072E4A72EB12CAC0EBD1E4E010894811CC1
:103AE000911C2796FFAEEEAE279767E2262E312C6B
:103AF0002C0E3D1E270124C01196B183A08301C066
:103B0000FD01A081B1818C918F32B1F3D601139662
:103B10008C91139782508230A8F28E01095D1F4F5D
:103B200059966D917C915A97C8010E941E1988235D
:103B300051F63FC0342D252D8701832F922F7C0114
:103B4000F50180819181B401A5010E947E15882331
:103B500029F42FC03196D501ED93FC93D501ED9159
:103B6000FC9180818F32B1F38823C9F0C701B8017D
:103B7000A40121E00E945F1C8823D9F00C151D05CB
:103B800019F0C8010E94E6162796EEADFFAD279703
:103B9000EE16FF0679F6C101322D292FCDCFC301D4
:103BA000B801A40125962FAD25970E945F1C182F00
:103BB00001C010E0CE0187960E94F016CE010C964F
:103BC0000E94F016812FCA5BDF4F0FB6F894DEBF5C
:103BD0000FBECDBFCF91DF911F910F91FF90EF905E
:103BE000DF90CF90BF90AF909F908F907F906F901D
:103BF0005F904F903F902F900895FB01242F60918C
:103C00003C0470913D04AF010E942B1D08950F9359
:103C10001F93CF93DF93EC01662331F0A396D093EB
:103C20003D04C0933C04A3978E010D5D1F4FC80156
:103C30000E94E6162596C801BE010E941E19DF915A
:103C4000CF911F910F9108950F931F93CF93DF93FF
:103C5000EC010E94AA148823C9F08E010B5F1F4F4C
:103C6000C801BE0141E00E94DC1E882339F4C8016E
:103C7000BE0140E00E94DC1E882341F0CE0161E0DD
:103C80000E94071E882319F081E001C080E0DF91C7
:103C9000CF911F910F910895DF93CF930F92CDB7DE
:103CA000DEB769830496BE016F5F7F4F41E050E04D
:103CB0000E94211A20E030E0019711F421E030E069
:103CC000C9010F90CF91DF91089580914606882316
:103CD00099F14091400450914104609142047091E7
:103CE0004304809144069091450624E434E00E9408
:103CF000BB13882319F14091470650914806609103
:103D0000490670914A06411551056105710591F00A
:103D1000809144069091450624E434E00E94BB1350
:103D2000882361F0109247061092480610924906C7
:103D300010924A061092460681E0089580E00895A8
:103D4000DF92EF92FF920F931F937B018C01D42E91
:103D50008091400490914104A0914204B0914304A9
:103D60008E159F05A007B107C1F00E94651E88232C
:103D7000E1F08091440690914506B801A70124E442
:103D800034E00E947614882381F0E0924004F0929F
:103D900041040093420410934304DD2011F481E0B8
:103DA00005C081E08093460601C080E01F910F911D
:103DB000FF90EF90DF9008958F929F92AF92BF9205
:103DC000CF92DF92EF92FF920F931F93CF93DF93E7
:103DD0006C01142F7093450660934406FC01178A0A
:103DE00082E090E0A0E0B0E080839183A283B3837F
:103DF0001092460610924706109248061092490605
:103E000010924A068FEF9FEFAFEFBFEF8093400411
:103E100090934104A0934204B0934304442321F4BB
:103E200088249924540140C0453008F01EC160E048
:103E300070E080E090E040E00E94A01E882309F43A
:103E400014C1C12FD0E02197FE0174E0EE0FFF1FD7
:103E50007A95E1F7EC5BFB4FE254FE4F8081EE5B1D
:103E6000F14090E08F779070892B09F0FEC0E65307
:103E7000FE4F80819181A281B38184369105A10595
:103E8000B10508F4F2C064E0CC0FDD1F6A95E1F7DC
:103E9000C65FD94F88809980AA80BB808114910425
:103EA000A104B10409F4E1C0C501B40140E00E94DD
:103EB000A01E882309F4D9C080914F04909150042A
:103EC0008050924009F0D1C020915404222309F47B
:103ED000CCC08091520490915304892B09F4C5C041
:103EE00080915104882309F4C0C0F601228B80918F
:103EF00051048483158661E070E007C04F5FF601CE
:103F000045874150483008F0B0C0F60145858481AE
:103F100090E09B01042E02C0220F331F0A94E2F7A7
:103F20008217930759F720915A0430915B042115A9
:103F3000310519F040E050E008C02091680430914C
:103F4000690440916A0450916B04F601258336831D
:103F500047835087E0905204F090530400E010E053
:103F6000E80CF91C0A1D1B1DE38AF48A058B168BCD
:103F70008091550490915604918F808F60915404E4
:103F800070E080E090E00E944F2E6E0D7F1D801F3C
:103F9000911FF601628F738F848F958F2091550446
:103FA0003091560455E0220F331F5A95E1F7215006
:103FB0003E4F232F3327269540E050E0260F371F32
:103FC000481F591F26873787408B518B8091570494
:103FD00090915804009719F0A0E0B0E008C08091DB
:103FE000640490916504A0916604B0916704850112
:103FF0007401E21AF30A040B150BA8019701280FAC
:10400000391F4A1F5B1FF601058404C0569547956A
:10401000379527950A94D2F72187328743875487AB
:10402000253FFFE03F07F0E04F07F0E05F0720F497
:104030008CE0F601878B19C0255F3F4F4040504010
:1040400018F480E1F6010EC0809170049091710423
:10405000A0917204B0917304F601828F938FA48FA4
:10406000B58F80E2878B81E001C080E0DF91CF9146
:104070001F910F91FF90EF90DF90CF90BF90AF9086
:104080009F908F9008956F927F928F929F92AF92A0
:10409000BF92CF92DF92EF92FF920F931F93CF9335
:1040A000DF93EC015A016B0138014901423051059F
:1040B0006105710508F45EC089859A85AB85BC856C
:1040C0000196A11DB11D84179507A607B70708F42F
:1040D00051C08F89803129F4E52EF62E072F112744
:1040E0000CC0803209F046C07A018B0187E016953A
:1040F0000795F794E7948A95D1F78B899C89AD89C8
:10410000BE89E80EF91E0A1F1B1FC801B70141E056
:104110000E94A01E882371F18F89803149F4F50136
:10412000F070EE0FFF1FEC5BFB4F718260820DC0E1
:10413000F501EF77F070EE0FFF1FEE0FFF1FEC5B46
:10414000FB4F60827182828293828A89823080F002
:104150008D819E81AF81B885E80EF91E0A1F1B1F55
:10416000E0924706F09248060093490610934A06EB
:1041700081E001C080E0DF91CF911F910F91FF900E
:10418000EF90DF90CF90BF90AF909F908F907F90F7
:104190006F900895CF92DF92EF92FF920F931F934B
:1041A000CF93DF93EC017A018B01690189859A85B0
:1041B000AB85BC850196A11DB11D84179507A60787
:1041C000B70708F453C08F89803129F45527412F50
:1041D000302F2F2D0CC0803209F048C09A01AB015E
:1041E00067E056954795379527956A95D1F78B895E
:1041F0009C89AD89BE89280F391F4A1F5B1F80919A
:10420000400490914104A0914204B09143042817C6
:1042100039074A075B0739F0CA01B90140E00E943B
:10422000A01E882319F18F89803159F4F701F070AD
:10423000EE0FFF1FEC5BFB4F80819181A0E0B0E0AF
:104240000EC0F701EF77F070EE0FFF1FEE0FFF1FAC
:10425000EC5BFB4F80819181A281B381BF70F6013D
:1042600080839183A283B38381E001C080E0DF91EA
:10427000CF911F910F91FF90EF90DF90CF90089515
:10428000AF92BF92CF92DF92EF92FF920F931F9364
:10429000DF93CF9300D000D0CDB7DEB76C017A01A9
:1042A0008B0182E090E0A0E0B0E0F6018083918392
:1042B000A283B3835E010894A11CB11CC601B8019E
:1042C000A70195010E94CA20882341F1C601B801C7
:1042D000A70100E010E020E030E00E9443208823A6
:1042E000E9F0E980FA800B811C81F6018789803131
:1042F00051F4F8EFEF16FFEFFF06F0E00F07F0E0E4
:104300001F07E0F209C088EFE8168FEFF8068FEF7D
:1043100008078FE0180790F281E001C080E00F905D
:104320000F900F900F90CF91DF911F910F91FF9001
:10433000EF90DF90CF90BF90AF9008954F925F9233
:104340006F927F928F929F92AF92BF92CF92DF92A5
:10435000EF92FF920F931F93DF93CF9300D000D083
:10436000CDB7DEB76C0149835A836B837C833901F7
:10437000EE24FF2487012E010894411C511C812C3E
:10438000E2E09E2EA12CB12C49815A816B817C8167
:10439000C60192010E94CA20882339F1D501C401C7
:1043A000F601058404C0880F991FAA1FBB1F0A9439
:1043B000D2F7E80EF91E0A1F1B1F29813A814B8193
:1043C0005C818789803131F4285F3F4F4040504005
:1043D000D8F205C0285F3F4F4F4F5F40A8F2F3016E
:1043E000E082F1820283138381E00F900F900F909F
:1043F0000F90CF91DF911F910F91FF90EF90DF9081
:10440000CF90BF90AF909F908F907F906F905F9074
:104410004F9008952F923F924F925F926F927F92AA
:104420008F929F92AF92BF92CF92DF92EF92FF92C4
:104430000F931F93DF93CF93CDB7DEB72F970FB6B0
:10444000F894DEBF0FBECDBF1C014A875B876C8727
:104450007D873F872E87DC0119968D919D910D9068
:10446000BC91A02D0196A11DB11D8E839F83A887AD
:10447000B987F9010081118122813381011511056C
:104480002105310549F0480159010894811C911C0E
:10449000A11CB11C1D8210C0D1018D909D90AD90CA
:1044A000BC901D828A859B85AC85BD850197A10541
:1044B000B10511F491E09D837501640144245524F4
:1044C00032018E010F5F1F4FF10181859285A38517
:1044D000B485481659066A067B0608F090C08E819E
:1044E0009F81A885B9858C159D05AE05BF0550F443
:1044F000A2E08A2E912CA12CB12CF2E0CF2ED12C4F
:10450000E12CF12CC101B701A60198010E94CA203B
:10451000882309F474C089819A81AB81BC81A70189
:1045200096012F5F3F4F4F4F5F4F0097A105B10599
:1045300019F049015A010DC0281939094A095B09C6
:104540008A859B85AC85BD85281739074A075B0797
:1045500059F00894411C511C611C711C0894C11C29
:10456000D11CE11CF11CB0CFC101A601B7010FEFB6
:104570001FEF2FEF3FE00E944320882399F43FC0B4
:104580002601370108944108510861087108C101EA
:10459000B301A201970186010E944320882379F18B
:1045A000730162018C149D04AE04BF0448F3AE8510
:1045B000BF854D915D916D917C91411551056105CE
:1045C000710539F0C101950184010E9443208823BF
:1045D000B1F0EE85FF8580829182A282B382FD8157
:1045E000FF2359F00894811C911CA11CB11CD1011E
:1045F0008D929D92AD92BC92139781E001C080E0B4
:104600002F960FB6F894DEBF0FBECDBFCF91DF91CE
:104610001F910F91FF90EF90DF90CF90BF90AF90E0
:104620009F908F907F906F905F904F903F902F90D2
:104630000895FC0180914B0690914C068E179F07C0
:1046400011F480E00895838D8E7F838F9FB7F89457
:1046500010928D0680918D0680938E06F0934C0605
:10466000E0934B069FBF81E008950F931F93CF9374
:10467000DF93FC01838DA685B7859585082F027091
:1046800081FF05C08C91892309F454C004C08C912A
:10469000892309F04FC08389948920E001972FEF87
:1046A0008F3F9207D9F7C589D689A685B7857585C5
:1046B00060E031E040E050E010E0CE01212F0197B2
:1046C0002FEF8F3F9207D9F78C91872311F0632B3F
:1046D00003C0832F80956823330F4F5F5F4F4830AF
:1046E000510559F78789908D20E001972FEF8F3F73
:1046F0009207D9F70111609580918D0620918E0661
:1047000090E001968F73907030E08217930779F0F4
:10471000E0918D06F0E0E35BF94F608380918D06B8
:1047200090E001968F73907080938D0603C0838D07
:104730008160838FDF91CF911F910F9108958091B8
:104740004B0690914C06009711F00E943523089576
:104750001F920F920FB60F9211242F933F934F93F6
:104760005F936F937F938F939F93AF93BF93EF93D9
:10477000FF930E949F23FF91EF91BF91AF919F9173
:104780008F917F916F915F914F913F912F910F90FA
:104790000FBE0F901F9018951F920F920FB60F9299
:1047A00011242F933F934F935F936F937F938F9336
:1047B0009F93AF93BF93EF93FF930E949F23FF912B
:1047C000EF91BF91AF919F918F917F916F915F9189
:1047D0004F913F912F910F900FBE0F901F90189502
:1047E0001F920F920FB60F9211242F933F934F9366
:1047F0005F936F937F938F939F93AF93BF93EF9349
:10480000FF930E949F23FF91EF91BF91AF919F91E2
:104810008F917F916F915F914F913F912F910F9069
:104820000FBE0F901F901895CF92DF92EF92FF92DC
:104830000F931F93CF93DF93EC017A018B011A8EB4
:10484000198E188E1F8A1E8A1D8A1C8A1B8A20E0D8
:1048500030E06901CC0CDD1CC20ED31EB601660F20
:10486000771F660F771FAB0148585F4FFA0185919C
:104870009591A591B4918E159F05A007B107E9F414
:10488000FB01E458FF4F859194919C8B8B8BFB012E
:10489000E258FF4F859194919E8B8D8BFB01E058E0
:1048A000FF4F85919491988F8F8BFB01EE57FF4FAF
:1048B000859194919A8F898F06C02F5F3F4F2C303E
:1048C000310509F0C6CF8F89988D892B09F449C02D
:1048D0004C85463108F03DC090916800483010F496
:1048E00084E005C04E3010F082E001C081E0892BE9
:1048F00080936800483028F4EDE6F0E0ADE6B0E0E3
:104900000BC04E3028F0ECE6F0E0ACE6B0E004C0BE
:10491000EBE6F0E0ABE6B0E05081483040F481E0F7
:1049200090E002C0880F991F4A95E2F710C0242F2B
:1049300030E04E3018F42850304002C02E50304045
:1049400081E090E002C0880F991F2A95E2F7852B3D
:104950008C93898D9A8D20E001972FEF8F3F9207DE
:10496000D9F7CE010E941923DF91CF911F910F91AA
:10497000FF90EF90DF90CF90089520914B063091FB
:104980004C062817390731F490918E0680918D06D8
:10499000981719F42FEF3FEF0FC0E0918E06F0E06B
:1049A000E35BF94F208180918E0690E001968F7332
:1049B000907080938E0630E0C901089520914B06D7
:1049C00030914C062817390719F020E030E00EC06E
:1049D00080918D0620918E0690E0805C9F4F821B17
:1049E000910960E470E00E946E2E9C01C901089557
:1049F0000F931F93DC0159968D919C915A97892BA7
:104A000049F481E090E013969C938E93129720E0F6
:104A100030E097C00FB7F8945B968C915B975196F6
:104A2000ED91FC91529750962C91509781FF8DC03B
:104A30008081822B808359968D919C915A970596FF
:104A400020E001972FEF8F3F9207D9F75B968C916B
:104A50005B9781FF35C031E040E050E070E010E04E
:104A6000832F90E0862397235196ED91FC915297E6
:104A700050962C915097892B29F0808120952823DE
:104A8000208303C08081822B808359968D919C91D5
:104A90005A97212F01972FEF8F3F9207D9F7330FA6
:104AA0004F5F5F4F48305105D9F65196ED91FC911B
:104AB0005297908150968C9150978095892333C05E
:104AC00031E040E050E070E010E0832F90E086237A
:104AD00097235196ED91FC91529750962C915097B7
:104AE000892B21F08081822B808304C080812095D6
:104AF0002823208359968D919C915A97212F0197B5
:104B00002FEF8F3F9207D9F7330F4F5F5F4F48303A
:104B10005105D9F65196ED91FC91529780815096AE
:104B20009C915097892B80830FBF59968D919C91B2
:104B30005A9720E001972FEF8F3F9207D9F721E096
:104B400030E0C9011F910F9108958081209528239D
:104B5000208371CF20914B0630914C0628173907DE
:104B600049F49FB7F89410928D0680918D0680933A
:104B70008E069FBF089520914B0630914C06281752
:104B8000390731F490918E0680918D06981719F4AB
:104B90002FEF3FEF0AC0E0918E06F0E0E35BF94FA4
:104BA0008081282F332727FD3095C90108951F9351
:104BB000CF93DF93EC01162F862F60E00E94C92D62
:104BC0008B8D81FD04C0812F61E00E941C2E1C870B
:104BD000212F30E0C901865C9E4FFC0184918D87B6
:104BE0002A5D3E4FF9016491E62FF0E0EE0FFF1FC2
:104BF000E45EFE4F859194919F878E87DF91CF91E0
:104C00001F910895FF920F931F938C01F62E862F0C
:104C100061E00E94C92D8F2D61E00E941C2E8F2D16
:104C200090E0FC01E65CFE4FE491D8015096EC93D5
:104C300050978A5D9E4FFC016491E62FF0E0EE0FE5
:104C4000FF1FEE5EFE4F8591949152969C938E933A
:104C500051971F910F91FF900895FF920F931F930B
:104C60008C01F62EFC011382128288EE93E0A0E004
:104C7000B0E084839583A683B78380EA91E0918333
:104C80008083148A138A168A158A108E178A128EC8
:104C9000118E838D2170220F8C7F822B838FC80110
:104CA000642F0E940226C8016F2D0E94D7251F91F4
:104CB0000F91FF9008950895DF93CF93CDB7DEB79E
:104CC00028970FB6F894DEBF0FBECDBFFC0188EB6E
:104CD00091E0918380833B96DE01119688E00D90F0
:104CE00001928150E1F728960FB6F894DEBF0FBE0F
:104CF000CDBFCF91DF910895FC0182EC91E09183CB
:104D00008083089508951F93FC011681A081B181CD
:104D100012962D913C911397F90109951150181B8A
:104D2000812F1F910895FC01A081B18114962D91CE
:104D30003C911597F90109958E5F089582E00895D9
:104D400088E00895FC011286118614861586178264
:104D5000108615820E9691838083E458FF4F8FE171
:104D600097E0918380830895FC01E458FF4FA08170
:104D7000B181ED91FC9111970284F385E02DCD0175
:104D80000995089508950F931F93FC014083518363
:104D90006283738304831583268337831F910F9166
:104DA0000895CF93DF93FC01128281E083835583C2
:104DB0004483268380EB91E091838083EF012796E3
:104DC000DB0188E00D9009928150E1F71786DF91B1
:104DD000CF910895FC01662311F482850895613016
:104DE00011F481850895623029F487819085A18529
:104DF000B28512C0633011F487810895643011F4D4
:104E000086850895653011F485850895663049F4E6
:104E100083859485A585B685892F9A2FAB2FBB27CF
:104E20000895673011F483850895683011F48785FB
:104E300008950480F581E02DE60FF11D39978081FA
:104E40000895FC018681875F08950F93DF93CF93C8
:104E500000D0CDB7DEB7FC01062F442341F1862FE9
:104E60008D57823020F0613111F0633101F5CF01AF
:104E700084589F4F9A838983FC01A081B181ED9171
:104E8000FC9111970190F081E02DCD016DE709951E
:104E9000E981FA81A081B181ED91FC91119760E2E5
:104EA00060270190F081E02DCD0109950DC0E458F7
:104EB000FF4F0190F081E02DA081B1812D913C91B7
:104EC000CF01602FF90109950F900F90CF91DF91DD
:104ED0000F910895CF92DF92FF920F931F93CF937C
:104EE000DF936C01EB016EE740E00E942527E8812B
:104EF000F9810280F381E02DCE010995082FE88128
:104F0000F9810280F381E02DCE010995F82E10E0A1
:104F10000E5F1F4FC601612F41E00E94252782E0EE
:104F2000F80EC6016F2D41E00E942527C6016A8157
:104F300041E00E942527C6016B8141E00E942527A0
:104F4000FB808A81F80E00E010E018C0E881F9814A
:104F50000190F081E02DCE01602F0995682FC601E8
:104F600041E00E942527E881F9810190F081E02D40
:104F7000CE01602F0995F80E0F5F1F4FE881F98170
:104F80000280F381E02DCE01099590E00817190702
:104F9000ECF2F094C6016F2D41E00E942527C60176
:104FA0000E94B426DF91CF911F910F91FF90DF9067
:104FB000CF90089510928F0610929006109291064D
:104FC000109292068FEF9FEFA0E0B0E080939306DF
:104FD00090939406A0939506B09396060895FC01CD
:104FE000E458FF4F808191810E9488280895089598
:104FF0001F920F920FB60F9211242F933F934F934E
:105000008F939F93EF93FF934091C6002091D70613
:105010003091D8062F5F3F4F2F7330708091D906A3
:105020009091DA062817390759F0E091D706F091E8
:10503000D806E956F94F40833093D8062093D70617
:10504000FF91EF919F918F914F913F912F910F90F1
:105050000FBE0F901F901895E0912B07F0912C0731
:10506000E05CFF4F8191919120813181821B930BF4
:105070008F739070892B11F00E94F72708951F926B
:105080000F920FB60F9211242F933F934F935F937C
:105090006F937F938F939F93AF93BF93EF93FF9300
:1050A00020911B0730911C0780911D0790911E07CE
:1050B0002817390731F48091C1008F7D8093C1009A
:1050C00016C0E0911D07F0911E07E552F94F40818F
:1050D00080911D0790911E07019660E470E00E9488
:1050E0006E2E90931E0780931D074093C600FF917C
:1050F000EF91BF91AF919F918F917F916F915F9150
:105100004F913F912F910F900FBE0F901F901895C8
:10511000AF92BF92DF92EF92FF920F931F93CF93C4
:10512000DF93EC017A018B01DD24403081EE5807DA
:1051300080E0680780E0780711F0DD24D39491E0E7
:10514000A92EB12CEC89FD89DD2069F0C5010E8CFA
:1051500002C0880F991F0A94E2F7808360E079E02B
:105160008DE390E005C0108260E874E88EE190E085
:10517000A80197010E94812E2150304040405040AC
:10518000569547953795279580E12030380720F0D0
:10519000DD2011F0DD24D6CFE889F9893083EA8952
:1051A000FB892083EE89FF89408121E030E0C9013D
:1051B0000A8C02C0880F991F0A94E2F7482B40839B
:1051C000EE89FF894081C9010B8C02C0880F991FAD
:1051D0000A94E2F7482B4083EE89FF894081C90198
:1051E0000C8C02C0880F991F0A94E2F7482B408369
:1051F000EE89FF8980810D8C02C0220F331F0A9433
:10520000E2F7209528232083DF91CF911F910F9102
:10521000FF90EF90DF90BF90AF900895DC011C9657
:10522000ED91FC911D97E05CFF4F219131918081C0
:105230009181281B390B2F733070C9010895DC014F
:105240001C96ED91FC911D97E05CFF4F2081318110
:10525000E054F040DF01AE5BBF4F8D919C91119700
:105260002817390719F42FEF3FEF07C08D919C9154
:10527000E80FF91F8081282F30E0C9010895DC0173
:105280001C96ED91FC911D97E05CFF4F20813181D0
:10529000E054F040DF01AE5BBF4F8D919C911197C0
:1052A0002817390719F42FEF3FEF10C08D919C910B
:1052B0001197E80FF91F20818D919C91119701960C
:1052C0008F73907011969C938E9330E0C90108956E
:1052D000FC0186859785DC01A05CBF4FFC01EE5B7D
:1052E000FF4F2D913C9111978081918128173907AB
:1052F000C1F70895CF93DF93EC01462FEE85FF852C
:10530000E05CFF4F80819181E054F040019660E4C1
:1053100070E00E946E2E9C01DF01AE5BBF4F8D914D
:105320009C91119728173907D1F3E05CFF4F8081DA
:105330009181E054F040E80FF91F4083EE85FF852E
:10534000E05CFF4F31832083EE89FF89208181E07B
:1053500090E00D8C02C0880F991F0A94E2F7282B69
:10536000208381E090E0DF91CF9108951092220791
:105370001092210788EE93E0A0E0B0E0809323072D
:1053800090932407A0932507B09326078CEC91E017
:105390009093200780931F0787E996E090932C074E
:1053A00080932B078BED96E090932E0780932D072B
:1053B00085EC90E09093300780932F0784EC90E089
:1053C000909332078093310780EC90E090933407FC
:1053D0008093330781EC90E09093360780933507F4
:1053E00086EC90E0909338078093370784E08093B1
:1053F000390783E080933A0787E080933B0785E095
:1054000080933C0781E080933D070895CF92DF921F
:10541000EF92FF920F931F93CF93DF937C016B0169
:105420008A01C0E0D0E00FC0D6016D916D01D701B7
:10543000ED91FC910190F081E02DC7010995C80F15
:10544000D91F015010400115110571F7CE01DF91F0
:10545000CF911F910F91FF90EF90DF90CF90089523
:10546000DC01ED91FC910190F081E02D099508950A
:10547000EF92FF920F931F938C01DC01ED91FC9151
:105480000190F081E02D6DE009957C01D801ED914E
:10549000FC910190F081E02DC8016AE009959C0122
:1054A0002E0D3F1DC9011F910F91FF90EF900895A0
:1054B000CF93DF93DB010D900020E9F71197A61B36
:1054C000B70BEC01E881F9810280F381E02DAD0199
:1054D0000995DF91CF9108954F925F927F928F92BD
:1054E0009F92AF92BF92CF92DF92EF92FF920F9373
:1054F0001F93DF93CF93CDB7DEB7A1970FB6F89484
:10550000DEBF0FBECDBF2C01742ECB01223008F4BC
:105510002AE019A231E2C32ED12CCC0EDD1E822E40
:105520009924AA24BB24672D752FA50194010E94FC
:10553000812E79018A01C801B701A50194010E9459
:105540004F2E472D461B0894C108D1084A3014F449
:10555000405D01C0495CF6014083E114F10401059E
:10556000110521F07E2C5F2DC801DDCFC201B601EF
:105570000E94582AA1960FB6F894DEBF0FBECDBF89
:10558000CF91DF911F910F91FF90EF90DF90CF901F
:10559000BF90AF909F908F907F905F904F900895B5
:1055A000CF92DF92EF92FF920F931F93CF93DF93EF
:1055B000EC016A017B012115310541F4E881F98193
:1055C0000190F081E02D642F09951FC02A3031052C
:1055D000D1F477FF17C0E881F9810190F081E02DC7
:1055E0006DE209958C0144275527BA014C195D09D4
:1055F0006E097F09CE012AE00E946C2A9801280FCB
:10560000391F04C02AE00E946C2A9C01C901DF9165
:10561000CF911F910F91FF90EF90DF90CF90089561
:10562000EF92FF920F931F937B019A010027F7FCE3
:105630000095102FB801A7010E94D02A1F910F9149
:10564000FF90EF9008950E94582A0895EF92FF92DC
:105650000F931F937C010E94582A8C01C7010E945E
:10566000382A080F191FC8011F910F91FF90EF9062
:105670000895AF92BF92CF92DF92EF92FF920F9375
:105680001F93CF93DF935C016B01EE24FF24C0E0F6
:10569000D0E010C0D501ED91FC9100811181C601CF
:1056A000BE010E94912B682FC501F8010995E80EF3
:1056B000F91E2196F60184819581C817D90750F308
:1056C000C701DF91CF911F910F91FF90EF90DF9075
:1056D000CF90BF90AF900895EF92FF920F931F93DA
:1056E0007C010E94392B8C01C7010E94382A9C0141
:1056F000200F311FC9011F910F91FF90EF90089566
:10570000FC01848195816817790748F40190F08144
:10571000E02D309721F0E60FF71F8081089580E09B
:105720000895FC01848195816817790748F40190F8
:10573000F081E02D309721F0E60FF71F808108956A
:1057400080E00895FC0180819181009729F420E098
:1057500030E040E050E004C00E9490309B01AC017A
:10576000B901CA0108950F931F93CF93DF93EC0102
:105770008B016F5F7F4F888199810E94C22F0097B4
:1057800011F480E005C0998388831B830A8381E03C
:10579000DF91CF911F910F910895CF93DF93EC018B
:1057A00088819981892B29F08A819B8186179707A7
:1057B00060F4CE010E94B32B882341F08C819D813F
:1057C000892B19F4E881F981108281E0DF91CF9172
:1057D0000895CF93DF93EC0188819981009711F0B0
:1057E0000E946A2F198218821D821C821B821A82D3
:1057F000DF91CF910895EF92FF920F931F93CF9374
:10580000DF93EC017B018A01BA010E94CD2B882332
:1058100021F4CE010E94E92B07C01D830C838881EF
:105820009981B7010E94CD30CE01DF91CF911F91B8
:105830000F91FF90EF900895CF93DF93EC011982C1
:1058400018821B821A821D821C821E8261157105BC
:1058500051F0DB010D900020E9F71197A61BB70B63
:10586000AD010E94FB2BDF91CF9108950F931F9301
:10587000182F092F6115710559F0DB010D900020DB
:10588000E9F71197A61BB70BAD010E94FB2B02C0D5
:105890000E94E92B812F902F1F910F910895FC01F9
:1058A000808191810E946A2F0895CF93DF930E9497
:1058B000092D0E94DC12CCE2D8E20E94331220971C
:1058C000E1F30E942C28F9CF0E94BD2E08951F926B
:1058D0000F920FB60F9211242F933F938F939F93A4
:1058E000AF93BF938091420790914307A0914407E3
:1058F000B0914507309146070196A11DB11D232F98
:105900002D5F2D3720F02D570196A11DB11D20933D
:1059100046078093420790934307A0934407B093B0
:10592000450780913E0790913F07A0914007B091B5
:1059300041070196A11DB11D80933E0790933F073B
:10594000A0934007B0934107BF91AF919F918F9172
:105950003F912F910F900FBE0F901F9018958FB70A
:10596000F8942091420730914307409144075091A9
:1059700045078FBFB901CA0108959FB7F8942091D8
:105980003E0730913F07409140075091410786B54F
:10599000A89B06C08F3F21F02F5F3F4F4F4F5F4FB7
:1059A0009FBF542F432F322F2227280F311D411D17
:1059B000511D82E0220F331F441F551F8A95D1F7D6
:1059C000B901CA010895EF92FF920F931F93CF93ED
:1059D000DF937B018C010E94BD2CEB010EC00E9465
:1059E000BD2C6C1B7D0B685E7340C8F30894E10806
:1059F000F10801091109C851DC4FE114F104010556
:105A0000110569F7DF91CF911F910F91FF90EF90F2
:105A10000895789484B5826084BD84B5816084BD26
:105A200085B5826085BD85B5816085BDEEE6F0E017
:105A3000808181608083E1E8F0E010828081826073
:105A40008083808181608083E0E8F0E080818160F4
:105A50008083E1EBF0E0808184608083E0EBF0E024
:105A6000808181608083EAE7F0E0808184608083C8
:105A70008081826080838081816080838081806872
:105A800080831092C1000895809393010895982F08
:105A90008E3008F09E509770809193018295880F08
:105AA000880F807C892B80937C0080917A008064B1
:105AB00080937A0080917A0086FDFCCF2091780057
:105AC00040917900942F80E030E0282B392BC901D8
:105AD00008951F93CF93DF93182FEB0161E00E948D
